:020000021000EC
:10F000000000012033F10100D9F00100358D04002A
:10F01000DDF00100DFF00100E1F001000000000080
:10F02000000000000000000000000000E3F001000C
:10F03000E5F0010000000000E7F00100E9F0010048
:10F04000B9460200EDF00100EFF00100314302008B
:10F05000F3F00100A9940400393202004D49020086
:10F06000FBF00100FDF00100FFF0010001F10100E3
:10F0700003F1010005F1010007F1010009F10100B0
:10F080000BF10100995F02002D93020011F10100C4
:10F09000D95F020015F10100DD78020019F10100CD
:10F0A0001BF101001DF101001FF1010021F1010020
:10F0B00023F1010025F10100000000000000000024
:10F0C00027F1010029F101002BF101002DF10100D0
:08F0D0002FF1010031F10100F4
:10F0D800FEE7FEE7FEE7FEE7FEE7FEE7FEE7FEE700
:10F0E800FEE7FEE7FEE7FEE7FEE7FEE7FEE7FEE7F0
:10F0F800FEE7FEE7FEE7FEE7FEE7FEE7FEE7FEE7E0
:10F10800FEE7FEE7FEE7FEE7FEE7FEE7FEE7FEE7CF
:10F11800FEE7FEE7FEE7FEE7FEE7FEE7FEE7FEE7BF
:10F12800FEE7FEE7FEE7FEE7FEE70348854600F058
:10F13800C5F800F003B87047000001203749384887
:10F148000A1A02D0072291438D46364936480A1AD0
:10F1580006D00722914381F30988022282F314889A
:10F1680032483349334A00F048F833483349344A7F
:10F1780000F043F833483449344A00F03EF8344844
:10F188003449354A00F039F834483549354A00F0F1
:10F1980034F835483549364A00F02FF835483649AD
:10F1A800364A00F02AF836483649374A00F025F83A
:10F1B80036483749002200F02BF8364836490022F5
:10F1C80000F026F835483649091A082903DB0022D9
:10F1D8000260043001601F481F49884205D0026858
:10F1E800043003B4904703BCF7E700208646EC469A
:10F1F800002000212B4A9047FEE7884207D0521A88
:10F2080005D0037801300B700131013AF9D170470C
:10F21800884202D002700130FAE7704700000120EE
:10F2280000FC00200000012000000120CCDD0400CB
:10F23800F02D0020F82E0020B0F20100B0F20100FD
:10F24800B0BA0400CCDD0400F02D0020F02D002021
:10F25800B0BA0400B0BA0400B0BA0400B0BA0400EE
:10F26800B0BA0400B0BA0400B0BA0400B0BA0400DE
:10F27800CCDD0400D4DE0400F82E0020F82E002097
:10F28800D4DE0400F82E0020082F0020082F0020CC
:10F298001C6D00201C6D0020206D0020206D0020BA
:08F2A800207100205106020054
:10F2B000024B034A1A6000BF704700BFF02D0020C8
:10F2C0000090D00308B500F00DF90346002B06D0DE
:10F2D000744B1B681B0A744A03F01F03136000F091
:10F2E0002DF90346002B02D0704B714A1A6000F0D2
:10F2F00041F90346002B06D06E4B1B685B0B6E4A30
:10F3000003F00703136000F061F90346002B05D0FA
:10F310006A4BDB68694A23F08073D36000F072F9AE
:10F320000346002B0ED04FF080430022C3F80C217F
:10F330004FF080430022C3F810214FF08043002299
:10F34000C3F8382500F08AF90346002B02D05C4B45
:10F3500003221A6000F09EF90346002B0BD0594B94
:10F3600005221A60584B01221A60584B00221A607D
:10F37000574B3F221A6000F0A9F90346002B76D0C4
:10F380004FF08053534AD3F80434C2F820354FF07D
:10F390008053504AD3F80834C2F824354FF08053D4
:10F3A0004C4AD3F80C34C2F828354FF08053494A00
:10F3B000D3F81034C2F82C354FF08053454AD3F8B7
:10F3C0001434C2F830354FF08053424AD3F8183421
:10F3D000C2F834354FF080533E4AD3F81C34C2F89B
:10F3E00040354FF080533B4AD3F82034C2F84435BF
:10F3F0004FF08053374AD3F82434C2F848354FF0E1
:10F400008053344AD3F82834C2F84C354FF0805337
:10F41000304AD3F82C34C2F850354FF080532D4A7F
:10F42000D3F83034C2F854354FF08053294AD3F81A
:10F430003434C2F860354FF08053264AD3F838345C
:10F44000C2F864354FF08053224AD3F83C34C2F8F6
:10F4500068354FF080531F4AD3F84034C2F86C35FA
:10F460004FF080531B4AD3F84434C2F8703500F093
:10F4700049F90346002B05D0174B1B68174A03F0C8
:10F480004F031360164BD3F88830154A43F47003CA
:10F49000C2F88830BFF34F8FBFF36F8FFFF708FFBD
:10F4A00000BF08BD240300104035014074C0074070
:10F4B0000DF0ADBA440200103C050040F0ED00E054
:10F4C000A0050040105600408856004018560040E5
:10F4D0001456004000C0004058020010E40E0040E6
:10F4E00000ED00E0124B1B68DBB2062B1DD1114B67
:10F4F0001B6803F00F03002B17D10F4B1B6803F0A1
:10F50000F003302B01D1012310E00B4B1B6803F0FB
:10F51000F003402B01D1012308E0074B1B6803F0E7
:10F52000F003502B01D1012300E00023184670475F
:10F53000E00F00F0E40F00F0E80F00F00A4B1B684A
:10F54000DBB2062B0DD1094B1B6803F00F03002B18
:10F5500007D1074B1B6803F0F003302B01D10123C7
:10F5600000E0002318467047E00F00F0E40F00F0C1
:10F57000E80F00F0124B1B68DBB2062B1DD1114BBC
:10F580001B6803F00F03002B17D10F4B1B6803F010
:10F59000F003302B01D1012310E00B4B1B6803F06B
:10F5A000F003402B01D1012308E0074B1B6803F057
:10F5B000F003502B01D1012300E0002318467047CF
:10F5C000E00F00F0E40F00F0E80F00F00A4B1B68BA
:10F5D000DBB2062B0DD1094B1B6803F00F03002B88
:10F5E00007D1074B1B6803F0F003302B01D1012337
:10F5F00000E0002318467047E00F00F0E40F00F031
:10F60000E80F00F0124B1B68DBB2062B1DD1114B2B
:10F610001B6803F00F03002B17D10F4B1B6803F07F
:10F62000F003302B01D1012310E00B4B1B6803F0DA
:10F63000F003402B01D1012308E0074B1B6803F0C6
:10F64000F003502B01D1012300E00023184670473E
:10F65000E00F00F0E40F00F0E80F00F00A4B1B6829
:10F66000DBB2062B0DD1094B1B6803F00F03002BF7
:10F6700007D1074B1B6803F0F003302B01D10123A6
:10F6800000E0002318467047E00F00F0E40F00F0A0
:10F69000E80F00F00A4B1B68DBB2062B0DD1094BBB
:10F6A0001B6803F00F03002B07D1074B1B6803F007
:10F6B000F003302B01D1012300E0002318467047EE
:10F6C000E00F00F0E40F00F0E80F00F00A4B1B68B9
:10F6D000DBB2062B0DD1094B1B6803F00F03002B87
:10F6E00007D1074B1B6803F0F003502B01D1012316
:10F6F00000E0002318467047E00F00F0E40F00F030
:10F70000E80F00F0124B1B68DBB2062B1DD1114B2A
:10F710001B6803F00F03002B17D10F4B1B6803F07E
:10F72000F003302B01D1012310E00B4B1B6803F0D9
:10F73000F003402B01D1012308E0074B1B6803F0C5
:10F74000F003502B01D1012300E00023184670473D
:10F75000E00F00F0E40F00F0E80F00F00048704701
:10F76000146D002070477047BFF34F8F054BDB6867
:10F7700003F4E0620349044B1343CB60BFF34F8FA4
:10F7800000BFFDE700ED00E00400FA0511DF70475F
:10F7900000BF184682B001904FF0A043184602B057
:10F7A000704700B585B00190084611461A460346D9
:10F7B0008DF803300B468DF8023013468DF801307A
:10F7C00001AB1846FFF7E6FF03909DF803209DF874
:10F7D00002305B001A439DF801309B001A439DF8EC
:10F7E00018301B0242EA03019DF81C301B04019AE9
:10F7F0001943039B02F5E07243F8221000BF05B0E5
:10F800005DF804FB00B585B003900B468DF80B3016
:10F810009DF80B2000230193002300931346002240
:10F8200000210398FFF7BDFF00BF05B05DF804FBA2
:10F8300000B585B0019001AB1846FFF7ABFF039010
:10F84000039BD3F804350293029BDA43019B012109
:10F8500001FA03F31A40039BC3F80825019B012218
:10F860009A40029B1A40039BC3F80C2500BF05B0C9
:10F870005DF804FB00B585B0019001AB1846FFF7B9
:10F8800089FF0390039800F00AF80246019B22FAD0
:10F8900003F303F00103184605B05DF804FB82B0E2
:10F8A0000190019BD3F81035184602B07047000054
:10F8B00084B00190244B0393019B002B40D0234B39
:10F8C0001A680399019B00BF00BF00BF00BF00BFC3
:10F8D00000BF00BF00BF8A422FD000BF00BF00BFE3
:10F8E00000BF00BF00BF00BF00BF00BF00BF00BF20
:10F8F00000BF00BF00BF00BF00BF00BF00BF00BF10
:10F9000000BF00BF00BF00BF00BF00BF00BF00BFFF
:10F9100000BF00BF00BF00BF00BF00BF00BF00BFEF
:10F9200000BF00BF00BF00BF00BF00BF00BF00BFDF
:10F9300000BF00BF00BF00BF00BF013BC3D10193A8
:10F9400000BF04B0704700BF0024F400F02D002079
:10F9500000B583B00190019B4FF47A7202FB03F370
:10F960001846FFF7A5FF00BF03B05DF804FB82B0A7
:10F970004FF010235B690193019BB3F1FF3F04D16A
:10F980004FF080535B691B0300E0019B184602B0F7
:10F9900070470000024BD3F804351846704700BF8B
:10F9A00000B0004000B58BB01649032008F00CF8F9
:10F9B00002F0C6FE02F094FD034607EE903AF8EE20
:10F9C000E77ACDED097A02F01DFE8DED080A03AB52
:10F9D00000221A605A609A60DA601A61099B0393E8
:10F9E000089B04936A4606AB93E8030082E8030091
:10F9F00003AB0ECB044829F059FB00BF0BB05DF8F8
:10FA000004FB00BFA0BB0400082F002082B00190BF
:10FA1000019B002B00BF02B07047000000B595B0FD
:10FA200001AB2422002118462BF01AFC1C238DF870
:10FA30000A3005238DF80B300D238DF80C3011237F
:10FA40008DF80D3001238DF80E3004238DF80F3022
:10FA500040F61C43ADF8103041F25E03ADF81230B1
:10FA60002A4B05932A4B06936F23ADF81C3040F6C2
:10FA70001C43ADF81E300A238DF82030254B099326
:10FA8000072000F007FF1390139B1293129B002B8B
:10FA900005D0214A40F22F11129805F091FB1F4B1F
:10FAA0000E931E4B0D93139B1193119B002B05D0AE
:10FAB000194A40F23711119805F082FB184B019357
:10FAC00001AB1946174801F03BFE1390139B1093AE
:10FAD000109B002B05D0104A4FF49E71109805F032
:10FAE0006FFB41F2883001F0C9FD1390139B0F9317
:10FAF0000F9B002B05D0084A40F23F110F9805F0EC
:10FB00005FFB00BF15B05DF804FB00BF60E31600AB
:10FB100020BF0200B0BA0400CCBB040020BB04002C
:10FB20000DFA0100402F002000B585B00C4B019369
:10FB300001AB184601F03EF80390039B0293029B31
:10FB4000002B05D0074A40F26B11029805F038FBF4
:10FB50006420FFF7FDFE00BF05B05DF804FB00BFA9
:10FB60008CBF0400CCBB040082B00190019A044B0E
:10FB70001033186810601B791371019802B0704738
:10FB8000082F002000B587B003900291694681E8F4
:10FB90000C001249032007F017FF114B1B7883F06C
:10FBA0000103DBB2002B0BD00D4B01221A700D4B61
:10FBB00000224FF40041184606F078FA059002E062
:10FBC000074B00221A70039B1A466B461868106098
:10FBD0001B791371039807B05DF804FB34BC040073
:10FBE000C8300020682F002010B584B003908DF835
:10FBF00008103E4B1B6803F48043002B2FD03C4B76
:10FC00001B68032B2BDD2F213A482BF0E6FA034625
:10FC1000002B06D02F2137482BF0DFFA03465C1C5F
:10FC20000EE05C2133482BF0D8FA0346002B06D0B7
:10FC30005C2130482BF0D1FA03465C1C00E02D4CCF
:10FC4000FFF7A8FE02469DF8083001932A4B009367
:10FC500013464FF4CB72214604200DF03BF99DF87A
:10FC60000830052B3ED801A252F823F085FC010094
:10FC70008FFC0100E5FC0100A7FC0100BFFC0100B6
:10FC8000D7FC01001D4B184606F042FA2BE01B4B37
:10FC9000184606F03DFA194B00224FF40041184671
:10FCA00006F004FA1FE0154B184606F031FA134B24
:10FCB00000224FF42031184606F0F8F913E00F4BFC
:10FCC000184606F025FA0D4B00224FF4A0211846E5
:10FCD00006F0ECF907E0094B184606F019FAFFF7B1
:10FCE00061FE00E000BF00BF04B010BD202E002068
:10FCF000242E0020CCBB04005CBC0400482F002054
:10FD000010B586B003902E4B1B6803F48043002B84
:10FD10002CD02C4B1B68032B28DD2F212A482BF0DD
:10FD20005CFA0346002B06D02F2127482BF055FA0A
:10FD300003465C1C0EE05C2123482BF04EFA034680
:10FD4000002B06D05C2120482BF047FA03465C1CB0
:10FD500000E01D4CFFF71EFE02461C4B00931346AD
:10FD60004FF4DC72214604200DF0B4F8184B194A08
:10FD70005A60174B184A9A60154B184ADA600021EE
:10FD8000134829F05DF90590059B002B05D00E4A1C
:10FD90004FF4DE71059805F013FA0D4B1B881846D9
:10FDA0001AF090FC0490049B002B05D0064A40F208
:10FDB000BD11049805F004FA00BF06B010BD00BFE5
:10FDC000202E0020242E0020CCBB04007CBC04008C
:10FDD000082F002069FB010085FB0100E9FB010001
:10FDE00000B583B003468DF807309DF80730012B2E
:10FDF00003D10449032007F0E7FD00BF03B05DF81D
:10FE000004FB00BF9CBC040030B589B000230793FD
:10FE1000144B6C461D460FCD0FC42B6823606B46F8
:10FE2000184602F013FA0690069B002B05D00E4AE6
:10FE30004FF4EF71069805F0C3F902F0E7FA059068
:10FE4000059B002B05D0084A40F2DF11059805F00C
:10FE5000B7F9064A0121064806F0F8F800BF09B0D4
:10FE600030BD00BFCCBC0400CCBB0400A5F9010030
:10FE700028BB040000B58DB0D54B1B68772B07D984
:10FE8000D34B00221A60D34B1B680133D14A136055
:10FE9000D149032007F098FD02F052FC02F020FB4C
:10FEA000034607EE903AF8EEE77ACDED0B7A02F0D2
:10FEB000A9FB8DED0A0A01F0E3F88DED090AC54BA7
:10FEC0001B6807EE903AF8EE677ACDED087AC34BDF
:10FED0000793DDED0A7AF5EEC07AF1EE10FA0AD555
:10FEE000DDED0A7ABFEE007AF4EEC77AF1EE10FA91
:10FEF00001DDBB4A00E0BB4ADDED0A7AFDEEE77AA0
:10FF000017EE901ADDED0A7AF5EEC07AF1EE10FAEE
:10FF100012DDDDED0A7AFDEEE77AF8EEE77A9DED87
:10FF20000A7A77EE677A9FEDB47A67EE877AFDEE0C
:10FF3000E77A17EE903A11E0DDED0A7AFDEEE77A06
:10FF4000B8EEE77ADDED0A7A77EE677A9FEDAA7A66
:10FF500067EE877AFDEEE77A17EE903A00930B464C
:10FF6000A149032007F06CFDDDED097AB2EE0A7AB3
:10FF700077EEC77AF5EEC07AF1EE10FA0ED5DDED28
:10FF8000097AB2EE0A7A77EEC77ABFEE007AF4EE1B
:10FF9000C77AF1EE10FA01DD914A00E0914ADDEDF9
:10FFA000097AB2EE0A7A77EEC77AFDEEE77A17EEB3
:10FFB000901ADDED097AB2EE0A7A77EEC77AF5EE9D
:10FFC000C07AF1EE10FA1ADDDDED097AB2EE0A7AA6
:10FFD00037EEC77ADDED097AF2EE0A6A77EEE67A55
:10FFE000FDEEE77AF8EEE77A77EE677A9FED827AB0
:10FFF00067EE877AFDEEE77A17EE903A19E0DDEDCD
:020000022000DC
:10000000097AB2EE0A7A77EEC77AFDEEE77AB8EEB1
:10001000E77ADDED097AF2EE0A6A77EEE67A77EEB4
:10002000677A9FED757A67EE877AFDEEE77A17EECD
:10003000903A00930B466D49032007F001FDDDED7A
:10004000087AF5EEC07AF1EE10FA0AD5DDED087AFD
:10005000BFEE007AF4EEC77AF1EE10FA01DD604AE5
:1000600000E0604ADDED087AFDEEE77A17EE901ABF
:10007000DDED087AF5EEC07AF1EE10FA12DDDDED75
:10008000087AFDEEE77AF8EEE77A9DED087A77EEEA
:10009000677A9FED597A67EE877AFDEEE77A17EE79
:1000A000903A11E0DDED087AFDEEE77AB8EEE77AF6
:1000B000DDED087A77EE677A9FED4F7A67EE877A03
:1000C000FDEEE77A17EE903A00930B46484903207D
:1000D00007F0B6FCDDED077AF5EEC07AF1EE10FA26
:1000E0000AD5DDED077ABFEE007AF4EEC77AF1EEBD
:1000F00010FA01DD3A4A00E03A4ADDED077AFDEEFA
:10010000E77A17EE901ADDED077AF5EEC07AF1EE98
:1001100010FA12DDDDED077AFDEEE77AF8EEE77A08
:100120009DED077A77EE677A9FED337A67EE877AEF
:10013000FDEEE77A17EE903A11E0DDED077AFDEE7D
:10014000E77AB8EEE77ADDED077A77EE677A9FED2A
:100150002A7A67EE877AFDEEE77A17EE903A0093F7
:100160000B462449032007F06BFCDDED0B7AF5EE1E
:10017000C07AF1EE10FA0AD5DDED0B7ABFEE007A07
:10018000F4EEC77AF1EE10FA01DD154A00E0154AE7
:10019000DDED0B7AFDEEE77A17EE901ADDED0B7AC6
:1001A000F5EEC07AF1EE10FA28DDDDED0B7AFDEE0A
:1001B000E77AF8EEE77A9DED0B7A77EE677A9FEDB6
:1001C0000E7A67EE877AFDEEE77A17EE903A27E02F
:1001D000D0300020CC300020A0BB04000000C8427A
:1001E000E0BC0400E4BC0400E8BC04001CBD040046
:1001F00050BD04007CBD04000000C842DDED0B7A58
:10020000FDEEE77AB8EEE77ADDED0B7A77EE677A06
:100210001FED077A67EE877AFDEEE77A17EE903AE0
:1002200000930B461549032007F00AFC0B9B029331
:100230000A9B0393DDED097AB2EE0A7A77EEC77A6C
:10024000CDED047A089B0593079B06936A4605ABA0
:1002500093E8030082E8030002AB0ECB084828F0C5
:1002600025FF084B1B680133064A13601720FFF770
:10027000DFFA00BF0DB05DF804FB00BFACBD0400A9
:10028000082F0020D030002000B583B00A4A012199
:100290000A4805F0DBFE0190019B0093009B002BB8
:1002A00005D0074A40F21221009804F089FF00BFF0
:1002B00003B05DF804FB00BF75FE01002CBB040019
:1002C000CCBB040008B50549032007F07DFBFFF710
:1002D0004BFAFFF749FA00BF08BD00BFDCBD0400C0
:1002E00000B587B00390019200930B468DF80B3058
:1002F0009DF80B30012B1FD0022B00D01DE01149BF
:10030000032007F061FB104A0021104805F09EFE13
:100310000590059B0493049B002B05D00C4A40F2EA
:100320003221049804F04CFF0A4B00224FF40031B4
:10033000184605F0BBFE00E000BF00BF07B05DF847
:1003400004FB00BF10BE0400C502020030BB040065
:10035000CCBB0400882F002010B590B00390029110
:1003600005AB18461DF048FE304B1B6803F4804374
:10037000002B2FD02E4B1B68032B2BDD2F212D485C
:100380002AF02BFF0346002B06D02F2129482AF004
:1003900024FF03465C1C0EE05C2126482AF01DFF6A
:1003A0000346002B06D05C2122482AF016FF0346A4
:1003B0005C1C00E01F4CFFF7EDFA0246BDF814305C
:1003C00001931D4B0093134640F24A22214604201C
:1003D0000CF080FDBDF814301A4606AB17491846DC
:1003E0002AF0D5FE164B00221A70154B154A5A609A
:1003F000134B02221A72124A06ABD360104B04222E
:100400001A611149114829F0F8F90F900F9B002B40
:1004100001D00F9B06E0029A03990C4829F098F945
:100420000F900F9B184610B010BD00BF202E00206B
:10043000242E0020CCBB040050BE04008CBE04005F
:10044000D430002038BB0400002E0020F42D002002
:1004500000B587B02749032007F0B6FAFFF796F9F1
:100460004FF4807300930021234829F025FC059068
:10047000059B0493049B002B05D0204A40F2962153
:10048000049804F09DFE6B4619461D48FFF764FF73
:100490000590059B0393039B002B05D0174A40F260
:1004A0009A21039804F08CFE009B1946144829F009
:1004B0003DFC0590059B0293029B002B05D00F4A43
:1004C00040F29E21029804F07BFE29F0D9FC0590B1
:1004D000059B0193019B002B05D0084A40F2A22105
:1004E000019804F06DFE1A20FFF7A2F900BF07B0D3
:1004F0005DF804FB90BE0400E1020200CCBB0400E6
:10050000C82F002010B588B0039005AB18461DF029
:1005100073FD2B4B1B6803F48043002B2FD0294B1A
:100520001B68032B2BDD2F2127482AF056FE03469C
:10053000002B06D02F2124482AF04FFE03465C1CD6
:100540000EE05C2120482AF048FE0346002B06D02E
:100550005C211D482AF041FE03465C1C00E01A4C59
:10056000FFF718FA0246BDF814300193174B0093B9
:10057000134640F2B722214604200CF0ABFC1FF0DA
:1005800099FB0346002B17D1114A0021114805F0B1
:100590005DFD0790079B0693069B002B05D00A4A3A
:1005A00040F2BD21069804F00BFE0B4B00224FF4E5
:1005B0002031184605F07AFD00BF08B010BD00BF1D
:1005C000202E0020242E0020CCBB040050BE0400AE
:1005D0005104020034BB0400A82F002008B5114BC1
:1005E000012283F825200F4B0122DA840D4B0122D2
:1005F00083F829200B4B0C4A9A630A4B0B4A1A606A
:10060000084B0B4A5A60074B072283F83C20054BE6
:1006100001221A74034B0722DA7402481FF050FBC0
:1006200000BF08BDF4300020B8BF0400050502007B
:1006300001FD010008B50549032007F0C5F9FFF7E2
:1006400093F8FFF791F800BF08BD00BFCCBE0400CF
:1006500000B58FB0002007F061F90C900C9B0B9354
:100660000B9B002B05D0634A4FF43F710B9804F0AD
:10067000A7FD4FF48073019300215F4829F01CFB14
:100680000C900C9B0A930A9B002B05D0594A40F210
:1006900005310A9804F094FD01AB19465748FFF75D
:1006A0005BFE0C900C9B0993099B002B05D0514AD3
:1006B00040F20931099804F083FD019B19464F4827
:1006C00029F034FB0C900C9B0893089B002B05D061
:1006D000484A40F20D31089804F072FD29F0D0FB31
:1006E0000C900C9B0793079B002B05D0414A40F2CE
:1006F0001131079804F064FD4149032007F064F9C3
:1007000003210B20FFF77EF80B20FFF7B3F8034619
:10071000002B25D104238DF81B30FFF728F9034661
:10072000A3F5E0430593FFF722F903461A469DF827
:100730001B301B03D31AA3F5E0430D9306E00D987D
:1007400004F018FD0D9B03F580530D93059A0D9B46
:100750009A42F4D22B49032007F036F9FFF704F848
:10076000294A04214FF480400CF09EFB274A3C218B
:10077000082004F08BFD0490049B0393039B002B43
:1007800005D01C4A40F22E31039804F019FD05F003
:1007900029FC0C900C9B0293029B002B05D0154A60
:1007A0004FF44C71029804F00BFDFFF7BDF9FFF711
:1007B00035F9FFF729FBFFF711FFFFF765FD002370
:1007C0008DF8023000238DF8033003238DF80130BB
:1007D00002238DF800306B460D4A19460B2002F0BB
:1007E0005DFC0C9001210B2002F0B2FC04F014FE21
:1007F000FCE700BFCCBB0400E1020200C82F0020D0
:1008000004BF040050BF04006DCE0200343100204C
:100810003506020000B587B0039002910192009363
:1008200005F058FF03468DF81730164B1B789DF8DE
:1008300017209A4208D29DF817301A461249012013
:1008400007F0D3F80F2318E0009B019A0299039850
:1008500003F092F80490049B002B0DD00B4B1B6807
:1008600001330A4A1360094B1B681A4608490120E4
:1008700007F0BBF8049B00E00023184607B05DF8C2
:1008800004FB00BF182E0020C8BF04000435002060
:1008900020C0040082B003468DF80730054A9DF859
:1008A00007301370044B00221A600023184602B070
:1008B000704700BF182E00200435002084B001903E
:1008C000244B0393019B002B40D0234B1A680399C0
:1008D000019B00BF00BF00BF00BF00BF00BF00BF43
:1008E00000BF8A422FD000BF00BF00BF00BF00BFC3
:1008F00000BF00BF00BF00BF00BF00BF00BF00BF00
:1009000000BF00BF00BF00BF00BF00BF00BF00BFEF
:1009100000BF00BF00BF00BF00BF00BF00BF00BFDF
:1009200000BF00BF00BF00BF00BF00BF00BF00BFCF
:1009300000BF00BF00BF00BF00BF00BF00BF00BFBF
:1009400000BF00BF00BF013BC3D1019300BF04B093
:10095000704700BF0024F400F02D002000B583B0E4
:100960000190019B4FF47A7202FB03F31846FFF7E4
:10097000A5FF00BF03B05DF804FB82B001904FF00B
:10098000A043184602B0704700B585B001900846F4
:1009900011461A4603468DF803300B468DF8023097
:1009A00013468DF8013001AB1846FFF7E6FF0390C0
:1009B0009DF803209DF802305B001A439DF801303A
:1009C0009B001A439DF818301B0242EA03019DF870
:1009D0001C301B04019A1943039B02F5E07243F893
:1009E000221000BF05B05DF804FB00B585B0039090
:1009F0000023019300230093002301220121039887
:100A0000FFF7C2FF00BF05B05DF804FB00B585B07D
:100A1000019001AB1846FFF7B0FF0390019B012244
:100A200002FA03F31946039800F018F800BF05B066
:100A30005DF804FB00B585B0019001AB1846FFF7E7
:100A40009CFF0390019B012202FA03F319460398CD
:100A500000F00EF800BF05B05DF804FB82B0019015
:100A60000091019B009AC3F8082500BF02B07047AF
:100A700082B001900091019B009AC3F80C2500BF41
:100A800002B0704730B587B003AB83E80600034679
:100A90008DF817309DF817301E2B33D09DF81700B6
:100AA0009DF80C109DF80D409DF80E509DF80F30EC
:100AB0009DF81020019200932B462246FFF764FF19
:100AC0009DF81130012B09D0022B1AD0002B0BD12D
:100AD0009DF817301846FFF7ADFF13E09DF817306B
:100AE0001846FFF793FF0DE0084806F067FF02463F
:100AF000062300938B230649022006F0A1FF06235C
:100B000001E000BF0023184607B030BD60C00400FC
:100B1000D0C0040082B003468DF807300023184689
:100B200002B0704700B5B5B01F4A02AB1146C022F3
:100B300018462AF06CFB00238DF8CF302AE09DF890
:100B4000CF2013465B0013445B0034AA1344C83B18
:100B50009DF8CF001A68002111469A88002362F39D
:100B60000F031A46FFF78EFF3290329B002B0CD0FA
:100B70000E4806F023FF0246329B0093C5230C4922
:100B8000022006F05DFF329B09E09DF8CF30013373
:100B90008DF8CF309DF8CF301F2BD0D900231846C9
:100BA00035B05DF804FB00BF30C1040060C0040034
:100BB000D0C0040000B587B00390FFF7B3FF0590E5
:100BC000059B002B0CD0344806F0F8FE0246059B2E
:100BD0000093E4233149022006F032FF059B56E0E2
:100BE0001E20FFF702FF1E20FFF710FF0520FFF772
:100BF000B5FE1A20FFF7F9FE1A20FFF707FF1720AE
:100C0000FFF7F3FE1720FFF701FF1220FFF7EDFEBD
:100C10001320FFF7EAFE1420FFF7E7FE1520FFF789
:100C2000E4FE1220FFF706FF1320FFF703FF142056
:100C3000FFF700FF1520FFF7FDFE0121039801F0EB
:100C40006BFE0590059B002B0CD0134806F0B6FEFA
:100C50000246059B0093FB231049022006F0F0FE9C
:100C6000059B14E00120FFF755FF0590059B002B25
:100C70000CD0094806F0A2FE0246059B0093FE2315
:100C80000649022006F0DCFE059B00E00023184622
:100C900007B05DF804FB00BF60C00400D0C00400D2
:100CA00082B001904FF0A043184602B0704700B5E3
:100CB00085B00190084611461A4603468DF8033068
:100CC0000B468DF8023013468DF8013001AB184603
:100CD000FFF7E6FF03909DF803209DF802305B00CC
:100CE0001A439DF801309B001A439DF818301B02EF
:100CF00042EA03019DF81C301B04019A1943039B2F
:100D000002F5E07243F8221000BF05B05DF804FB65
:100D100000B585B003900B468DF80B309DF80B2085
:100D2000002301930023009313460022002103981F
:100D3000FFF7BDFF00BF05B05DF804FB00B585B04F
:100D4000019001AB1846FFF7ABFF0390039800F04A
:100D50000AF80246019B22FA03F303F00103184646
:100D600005B05DF804FB82B00190019BD3F810350B
:100D7000184602B07047000082B0034600918DF81B
:100D800007309DF80730072B36D801A252F823F020
:100D9000B10D0200B90D0200C10D0200CB0D020021
:100DA000D30D0200DD0D0200E70D0200F10D02007F
:100DB000009B144A1A6021E0009B134A1A601DE050
:100DC000009B4FF07A521A6018E0009B0F4A1A609D
:100DD00014E0009B4FF07C521A600FE0009B4FF034
:100DE0007E521A600AE0009B4FF080421A6005E0D4
:100DF000009B074A1A6001E0012300E00023184627
:100E000002B07047ABAA2A3ECDCC4C3EABAAAA3E5C
:100E10000000404084B003460091ADF80630BDF8B4
:100E20000630144AD28A9B1A124A127E93FBF2F3BE
:100E3000ADF80E30BDF90E30002B03DA0023ADF80B
:100E40000E300CE00B4B9B8A1A46BDF90E309A42CD
:100E500005DC084B9B8A013B9BB2ADF80E30054B7D
:100E6000DA69BDF90E3013441A78009B1A7000BF7E
:100E700004B070470C350020F0B589B003900291A2
:100E800004AB19460520FFF777FF0790079B002B5F
:100E90000CD0334806F092FD0246079B009397233F
:100EA0003049022006F0CCFD079B4DE0039829F065
:100EB000D3FB04460D46DDED047A9FED2B7AC7EE99
:100EC000876A16EE900A29F0D5FB06460F469FED7D
:100ED000201B9FED210B29F0B7FE53EC102B304661
:100EE000394629F073F902460B462046294629F077
:100EF00009FA03460C461846214629F0D5FB03465D
:100F000006931A4B93ED007ADDED066AC6EE877AFA
:100F10009FED177A67EE877AFCEEE77A17EE903A44
:100F2000ADF81630BDF816300533124A82FB0312B5
:100F30009210DB17D31A9BB21A46920013445B003F
:100F40009AB2029B1A800023184609B0F0BD00BF78
:100F50000000000000002C400000000000000040E5
:100F6000ACC2040018C304009A99193F2C35002024
:100F700000007A4467666666F0B589B00390029116
:100F800004AB19460020FFF7F7FE0790079B002BE4
:100F900010D0354806F012FD0246079B0093AB23A4
:100FA0003249022006F04CFD079B07EE903AF8EE1E
:100FB000677A48E0039829F04FFB04460D46DDEDC3
:100FC000047A9FED2B7AC7EE876A16EE900A29F015
:100FD00051FB06460F469FED1E1B9FED1F0B29F090
:100FE00033FE53EC102B3046394629F0EFF8024619
:100FF0000B462046294629F085F903460C4618463B
:10100000214629F051FB03460693069829F032FB4E
:101010004FF00002174B29F0D5F803460C4618464E
:1010200021460FA3D3E9002329F06CF903460C46AF
:101030001846214629F038FB034605930E4A059BC6
:101040001360DFED0E7AB0EE670A09B0F0BD00BFA5
:101050000000000000002C400000000000000040E4
:101060007B14AE47E17A843FACC2040018C304008D
:101070009A99193F0000E03F3C3500200000000035
:10108000034B1B6807EE903AB0EE670A704700BF4B
:101090003C35002000B587B001900B46ADF802301A
:1010A000019B1B788DF8083000238DF81430002345
:1010B000ADF80A3000238DF80C30044B1B6802AAEF
:1010C0001046984700BF07B05DF804FB08350020C4
:1010D00000B58BB003900B46ADF80A30BDF80A207E
:1010E00006AB0233039918462AF091F801238DF8D4
:1010F0002430BDF81A201F4B1B899A4203D80123C4
:101100008DF818300CE0BDF81A201A4B5B899A4212
:1011100003D302238DF8183002E000238DF8183035
:10112000BDF81A300DF1170211461846FFF772FE8E
:101130009DF817308DF81C300F4B1B78002B0BD00F
:101140000E4A9DF817301946002300930B460C49B0
:10115000032006F075FC03E09DF81720094B1A7078
:10116000094B1B6806AA1046984700BF0BB05DF8F4
:1011700004FB00BF0C350020393500206CC304008F
:1011800070C30400192E00200835002000B589B076
:101190000190019B1B78022B03D1354B00221A7062
:1011A0005FE0019B1B78002B5BD1002307930EE0CF
:1011B000019B5A68079B5B001344B3F900301A4641
:1011C0002C49032006F011FC079B01330793079B72
:1011D000012BEDDD019B5B68B3F900301A460DF180
:1011E0000A0319461046FFF747FE0690069B059333
:1011F000059B002B05D0204A40F24F11059803F0C3
:10120000DFFF019B5B680233B3F900301A4602AB83
:1012100019461046FFF7B0FEF0EE407AFCEEE77A92
:1012200017EE903A0693069B0493049B002B05D07F
:10123000114A4FF4A971049803F0C2FF0DF10A039B
:101240000E4A0221184604F065F80690069B0393A7
:10125000039B002B05D0084A40F25511039803F078
:10126000AFFF03F003FD00BF09B05DF804FB00BF52
:10127000383500209CC30400ACC20400D110020029
:1012800000B587B001900B468DF80330184B1B79E1
:101290001846FFF753FD0346002B0FD0144B5B7924
:1012A0001846FFF74BFD0346002B03D004238DF8AF
:1012B0000F3006E003238DF80F3002E005238DF890
:1012C0000F300DF10F030B4A0121184604F022F8EC
:1012D0000590059B0493049B002B05D0064A40F221
:1012E0007B11049803F06CFF00BF07B05DF804FBAE
:1012F0000C35002095100200ACC2040000B585B08A
:101300001D4B1B68029302AB1C49184603F046FCB8
:101310000390039B002B0DD0194806F04FFB0246AB
:10132000039B00934FF4C4731649022006F088FB18
:10133000039B1DE0144B01221A7003F01BFE039067
:10134000039B002B0DD00E4806F038FB0246039B92
:1013500000934FF4C6730B49022006F071FB039B08
:1013600006E000BF084B1B78DBB2002BFAD100234C
:10137000184605B05DF804FBBCC304008D110200E3
:10138000ACC2040018C304003835002000B58DB08D
:10139000524B1B68099309AB5149184603F0FEFBF9
:1013A0000B900B9B002B0DD04E4806F007FB02461E
:1013B0000B9B00934FF4D0734B49022006F040FB87
:1013C0000B9B87E000238DF8183000238DF819302F
:1013D00000238DF81A3000238DF81B3002238DF87E
:1013E0001C3000238DF81D3000238DF81E303F4B3C
:1013F000DB788DF81F3000238DF8203001238DF825
:101400001E3005238DF81A3005238DF81C30384A1C
:1014100003AB07CA03C31A7001238DF812300023EF
:101420008DF80E3005238DF8103006AB19460020DC
:1014300003F062FC0B900B9B002B0DD0294806F0AB
:10144000BDFA02460B9B00934FF4DA732649022043
:1014500006F0F6FA0B9B3DE003AB1946012003F0C2
:101460004BFC0B900B9B002B0DD01E4806F0A6FAF0
:1014700002460B9B009340F2B7131B49022006F073
:10148000DFFA0B9B26E002211A4803F0CBFC0B90FD
:101490000B9B0A930A9B002B05D0124A4FF4DE7176
:1014A0000A9803F08DFE0221134803F0BBFC0B9059
:1014B0000B9B002B0DD00B4806F080FA02460B9BCD
:1014C000009340F2BF130849022006F0B9FA0B9BC3
:1014D00000E0002318460DB05DF804FBBCC3040017
:1014E0008D110200ACC2040018C304000C350020AA
:1014F000C0C30400303500203435002000B587B06B
:101500000190FFF743FF0590059B082B19D0059B21
:101510000493049B002B05D00C4A40F2CF11049891
:1015200003F04EFE03F006FD0590059B0393039B1D
:10153000002B07D0054A4FF4E971039803F040FEF1
:1015400000E000BF07B05DF804FB00BFACC20400C0
:1015500082B00190019B002B01D10E2339E0019B49
:101560001B68002B01D10E2333E0019B1B69002B6C
:1015700008D1019B5B69002B04D1174B4FF07E52C1
:101580001A601DE0019B1B69002B03D0019B5B6966
:10159000002B01D101231CE0019B5B6907EE903A0F
:1015A000F8EE676A019B1A69019B5B69134407EEB9
:1015B000903AB8EE677AC6EE877A074BC3ED007AA9
:1015C000019BDA89019B9B899A4201D2012300E0A9
:1015D0000023184602B070472C35002000B585B0B6
:1015E00001F050FD034683F00103DBB2002B0DD068
:1015F00001F000FD0390039B0293029B002B05D09A
:101600001B4A4FF40071029803F0DAFD00238DF8B5
:10161000023000238DF8033000238DF801300323BE
:101620008DF80030134B1B7918466B46124A194649
:1016300001F034FD0390039B0193019B002B05D027
:101640000B4A40F20B21019803F0BAFD094B1B79BC
:101650000121184601F07CFD064B5B7901211846FB
:1016600001F076FD0023184605B05DF804FB00BFCD
:10167000ACC204000C35002081120200F0B587B026
:101680000390039B312B01D801234CE00020FFF78E
:1016900035FF264A0121264804F0D8FC0590059B19
:1016A000002B0DD0234806F089F90246059B0093D4
:1016B00040F275232049022006F0C2F9059B32E072
:1016C0001E4F039B19464FF000024FF000034FF0EE
:1016D0000004D40344EA5144CB0313F5FA7544F1F2
:1016E00000064FF47A724FF000032846314629F085
:1016F00057FB03460C4600221946384604F0D6FC38
:101700000590059B002B0DD00A4806F057F90246BC
:10171000059B009340F279230749022006F090F9D7
:10172000059B00E00023184607B0F0BDFD14020041
:10173000A8C20400ACC2040018C304004035002055
:1017400030B587B003900291039B002B01D10E238B
:1017500062E0029B002B01D10E235DE00298FFF7AF
:10176000F7FE0590059B002B0DD02D4806F026F9BD
:101770000246059B009340F29D232A49022006F071
:101780005FF9059B48E0029B1B68274A1360274AC4
:10179000029B15461C1D0FCC0FC594E80F0085E871
:1017A0000F00224B5B7900211846FFF7B1FA1F4B5F
:1017B0001B7900211846FFF7ABFA1C4B9B780021E0
:1017C0001846FFF7A5FAFFF709FF0590059B002BC8
:1017D0000DD0134806F0F2F80246059B00934FF433
:1017E0002C731049022006F02BF9059B14E0FFF73B
:1017F00085FD0590059B002B0DD0094806F0DEF80D
:101800000246059B009340F2B3230649022006F0EE
:1018100017F9059B00E00023184607B030BD00BF54
:10182000ACC2040018C30400083500200C350020A9
:1018300084B00190244B0393019B002B40D0234B99
:101840001A680399019B00BF00BF00BF00BF00BF23
:1018500000BF00BF00BF8A422FD000BF00BF00BF43
:1018600000BF00BF00BF00BF00BF00BF00BF00BF80
:1018700000BF00BF00BF00BF00BF00BF00BF00BF70
:1018800000BF00BF00BF00BF00BF00BF00BF00BF60
:1018900000BF00BF00BF00BF00BF00BF00BF00BF50
:1018A00000BF00BF00BF00BF00BF00BF00BF00BF40
:1018B00000BF00BF00BF00BF00BF013BC3D1019309
:1018C00000BF04B0704700BF0024F400F02D0020DA
:1018D00000B583B00190019B4FF47A7202FB03F3D1
:1018E0001846FFF7A5FF00BF03B05DF804FB00003A
:1018F00000B587B0034602918DF80F30114B1B687D
:10190000002B1AD00F4B1B685B6805930D4B1B68AF
:101910001B788DF813309DF80F209DF813100023CD
:1019200000931346029A059802F012FC0346002B1E
:101930000CBF01230023DBB200E00023184607B0F0
:101940005DF804FB60350020024B00221A6000BFE6
:10195000704700BF6035002000B583B001900F4B89
:101960001B68002B14D1019B5868019B99680023C8
:101970000022FEF74FFF0346002B09D1019B5B6855
:10198000184602F0BBF8054A019B1360002300E0F3
:101990000123184603B05DF804FB00BF603500204A
:1019A00000B583B0124B1B68019301AB19460220AE
:1019B000FFF79EFF034683F00103DBB2002B01D04B
:1019C000012311E001AB023319460220FFF790FF1B
:1019D000034683F00103DBB2002B01D0012303E0B7
:1019E0000320FFF775FF0023184603B05DF804FBE2
:1019F000CCC3040008B50C4B1B68002B10D00A4B5D
:101A00001B685B68184602F097F8074B1B685B6819
:101A1000184602F02BF8044B00221A60002300E065
:101A20000123184608BD00BF6035002000B585B011
:101A3000124B1B689868114B1B68D9680023002261
:101A4000FEF7E8FE0390039B002B0CD00C4805F03A
:101A5000B5FF0246039B00934A230A49022005F082
:101A6000EFFF039B06E0054B1B689B68184602F0DE
:101A700045F80023184605B05DF804FB64350020E6
:101A8000D0C304003CC4040008B5074B1B689B6826
:101A9000184602F051F8044B1B689B68184601F089
:101AA000E5FF0023184608BD6435002000B587B067
:101AB000034602918DF80F300E4B1B6898680D4B52
:101AC0001B6819780DF10F0201230093012302F026
:101AD0003FFB0590074B1B689868064B1B681978FD
:101AE0000123029A02F05FFB05900023184607B01D
:101AF0005DF804FB6435002000B587B003460A4654
:101B00008DF80F3013468DF80E309DF80F308DF89C
:101B100010309DF80E308DF81130094B1B68986815
:101B2000074B1B68197804AA00230093022302F0D4
:101B30000FFB05900023184607B05DF804FB00BFBB
:101B40006435002000B589B00346049103928DF8F6
:101B50001730002307931FE0079BDAB29DF8173078
:101B60001344D8B2049A079B13441946FFF79EFF0B
:101B70000690069B002B0CD00C4805F01FFF024678
:101B8000069B0093A4230A49022005F059FF069BF7
:101B900007E0079B01330793079A039B9A42DBD325
:101BA0000023184609B05DF804FB00BFD0C3040051
:101BB0003CC4040000B583B00190054A019B13604A
:101BC000FFF734FF0346184603B05DF804FB00BF7F
:101BD0006435002000B583B0FFF756FF0190044B39
:101BE00000221A60019B184603B05DF804FB00BF99
:101BF0006435002000B585B0134B1B68002B01D164
:101C000008231DE00DF10B0319460F20FFF74EFFCF
:101C10000390039B002B0CD00C4805F0CFFE02462E
:101C2000039B0093C5230A49022005F009FF039B8B
:101C300006E09DF80B30BC2B01D1002300E005230A
:101C4000184605B05DF804FB64350020D0C30400DD
:101C50003CC4040000B587B00390434B1B68002BC5
:101C600001D108237BE0039B002B01D10E2376E0FA
:101C7000039B1B7803F0C003002B11D1039B5B78FF
:101C800003F07803002B0BD1039B9B7803F07C03BC
:101C9000002B05D1039BDB7803F03B03002B01D025
:101CA00007235CE0039B1B7819461020FFF724FFF5
:101CB0000590059B002B0CD02C4805F07FFE0246BA
:101CC000059B0093DB232A49022005F0B9FE059B02
:101CD00045E0039B5B7819462020FFF70DFF059038
:101CE000059B002B0CD0214805F068FE0246059BA1
:101CF0000093DE231E49022005F0A2FE059B2EE084
:101D0000039B9B7819462120FFF7F6FE0590059B63
:101D1000002B0CD0154805F051FE0246059B0093A0
:101D2000E1231349022005F08BFE059B17E0039B7E
:101D3000DB7819462220FFF7DFFE0590059B002B7C
:101D40000CD00A4805F03AFE0246059B0093E423B6
:101D50000749022005F074FE059B00E000231846A9
:101D600007B05DF804FB00BF64350020D0C3040059
:101D70003CC4040000B587B00390134B1B68002BD4
:101D800001D108231BE0039B002B01D10E2316E099
:101D900003992720FFF78AFE0590059B002B0DD0A5
:101DA0000A4805F00BFE0246059B009340F209131A
:101DB0000749022005F044FE059B00E00023184679
:101DC00007B05DF804FB00BF64350020D0C30400F9
:101DD0003CC4040000B58BB00390414B1B68002B42
:101DE00001D1082377E0039B002B01D10E2372E081
:101DF00005AB102219463020FFF7A4FE0990099B7D
:101E0000002B0DD0374805F0D9FD0246099B009301
:101E10004FF48C733449022005F012FE099B5AE0FE
:101E20009DF81420039B1A709DF81520039B5A708F
:101E30009DF816309AB29DF819301B029BB203F43C
:101E400040739BB213449AB2039B5A809DF817309B
:101E50009AB29DF819309B08DBB21B029BB203F4C7
:101E600040739BB213449AB2039B9A809DF81A3038
:101E70009AB29DF81B309BB21B029BB213449BB2DB
:101E80001AB2039BDA809DF81E309AB29DF81F307B
:101E90009BB21B029BB213449BB21AB2039B1A81E2
:101EA0009DF820309AB29DF821309BB21B029BB264
:101EB00013449BB21AB2039B5A819DF822309AB206
:101EC0009DF823309BB21B029BB213449BB21AB203
:101ED000039B9A81002318460BB05DF804FB00BFFA
:101EE00064350020D0C304003CC4040000B587B0B2
:101EF0000390264B1B68002B01D1082342E0039B73
:101F0000002B01D10E233DE00DF1120319462820CC
:101F1000FFF7CCFD0590059B002B0DD01C4805F06C
:101F20004DFD0246059B009340F2311319490220F2
:101F300005F086FD059B25E00DF1130319462920C8
:101F4000FFF7B4FD0590059B002B0DD0104805F060
:101F500035FD0246059B00934FF49A730D4902200C
:101F600005F06EFD059B0DE09DF813309BB21B0242
:101F70009AB29DF812309BB213449BB21AB2039BE3
:101F80001A800023184607B05DF804FB6435002072
:101F9000D0C304003CC4040000B587B00390264BB6
:101FA0001B68002B01D1082342E0039B002B01D1C9
:101FB0000E233DE00DF1120319462A20FFF776FDAE
:101FC0000590059B002B0DD01C4805F0F7FC024640
:101FD000059B00934FF4A3731949022005F030FDCF
:101FE000059B25E00DF1130319462B20FFF75EFD3D
:101FF0000590059B002B0DD0104805F0DFFC024634
:10200000059B009340F249130D49022005F018FD8D
:10201000059B0DE09DF813309BB21B029AB29DF810
:1020200012309BB213449BB21AB2039B1A80002356
:10203000184607B05DF804FB64350020D0C30400E7
:102040003CC4040000B585B0244B1B68002B01D1B3
:1020500008233FE00DF10B0319462120FFF726FD71
:102060000390039B002B0DD01D4805F0A7FC0246F2
:10207000039B009340F259131A49022005F0E0FC3B
:10208000039B27E09DF80B3003F00103002B01D0E8
:1020900000231FE09DF80B3043F00103DBB28DF805
:1020A0000B309DF80B3019462120FFF725FD0390DA
:1020B000039B002B0DD00A4805F080FC0246039BD1
:1020C000009340F263130749022005F0B9FC039B1B
:1020D00000E00023184605B05DF804FB64350020DD
:1020E000D0C304003CC4040082B001904FF0A04370
:1020F000184602B0704700B585B0019001AB184694
:10210000FFF7F2FF0390039800F00AF80246019BE4
:1021100022FA03F303F00103184605B05DF804FB4F
:1021200082B00190019BD3F81035184602B0704779
:1021300000B583B001900B46ADF80230034B1B692C
:102140000020984700BF03B05DF804FB683500200D
:1021500000B585B001900B468DF80330104B5B68DD
:10216000019A9A4217D10E4B5B681846FFF7C3FFDE
:102170000346002B0FD10B4A0021002003F0CAF8C0
:102180000390039B0293029B002B04D0064A51212B
:10219000029803F015F800BF05B05DF804FB00BF1E
:1021A000683500203121020090C4040000B587B0DA
:1021B000039000F067FF034683F00103DBB2002BBE
:1021C00012D000F017FF0590059B002B0CD01C4887
:1021D00005F0F4FB0246059B009360231949022099
:1021E00005F02EFC059B27E000238DF8123000231C
:1021F0008DF8133000238DF8113003238DF8103043
:1022000004AB114A1946039800F048FF0590059B5E
:10221000002B0CD00A4805F0D1FB0246059B009329
:1022200069230849022005F00BFC059B04E001210D
:10223000039800F08DFF0023184607B05DF804FBFB
:1022400090C4040000C504005121020000B589B00B
:102250000390039B002B01D10E23C8E0039B9B68D6
:10226000002B01D10E23C2E0039BDB68002B01D1C0
:102270000E23BCE0039B1B69002B01D10E23B6E0AB
:10228000039B1B695C4A1361039B1A785A4B1A70B3
:10229000039B5B68584A5360039B9B68564A936054
:1022A000039BDB68544AD360534B00221A75524893
:1022B000FFF780FC0790079B002B0CD04F4805F0E0
:1022C0007DFB0246079B00938E234D49022005F0BB
:1022D000B7FB079B8BE0FFF78DFC07904948FFF7A2
:1022E00079FD0790079B002B0CD0444805F066FB56
:1022F0000246079B009394234149022005F0A0FB6E
:10230000079B74E04048FFF7A5FC0790079B002B54
:102310000CD03A4805F052FB0246079B00939E23DF
:102320003749022005F08CFB079B60E00DF11B0391
:102330001846FFF71FFD0790079B002B0CD02F4876
:1023400005F03CFB0246079B0093A3232C49022087
:1023500005F076FB079B4AE09DF81B3003F0030372
:10236000002B2AD006AB1846FFF7C0FD0790079B4D
:10237000002B0CD0214805F021FB0246079B00935F
:10238000AB231F49022005F05BFB079B2FE00DF1FB
:1023900016031846FFF700FE0790079B002B0CD092
:1023A000164805F00BFB0246079B0093AD2314492A
:1023B000022005F045FB079B19E09DF81B3003F058
:1023C0000303002BB2D1FFF705FC0790079B002BFE
:1023D0000CD00A4805F0F2FA0246079B0093B3239B
:1023E0000749022005F02CFB079B00E0002318465C
:1023F00009B05DF804FB00BF6835002090C40400FC
:1024000000C504007E35002054C5040000B585B029
:102410002F4B1B7D002B01D0002354E02C4B0122BD
:102420001A752B48FFF7C6FB0390039B002B0CD0BB
:10243000284805F0C3FA0246039B0093CC232649A3
:10244000022005F0FDFA039B3DE02448FFF702FC63
:102450000390039B002B0CD01E4805F0AFFA0246F8
:10246000039B0093CF231C49022005F0E9FA039B4C
:1024700029E0FFF7AFFB0390039B002B0CD015481E
:1024800005F09CFA0246039B0093D22312490220D6
:1024900005F0D6FA039B16E00D4B5B681846FFF774
:1024A00085FE0390039B002B0CD00A4805F086FAAA
:1024B0000246039B0093D5230749022005F0C0FA8A
:1024C000039B00E00023184605B05DF804FB00BF45
:1024D0006835002090C4040000C5040058C50400FD
:1024E00010B586B04FF0000304934FF00003039340
:1024F0004048FFF75FFB02900DF102031846FFF71B
:10250000F5FC0290FFF766FB0290029B0193019B92
:10251000002B05D0384A4FF48F71019802F050FE1D
:10252000344BDB7D1A46334B9B7DD31A07EE903A32
:10253000B8EEE77AF0EE006AC7EE267ACDED047ABF
:10254000BDF902301A462B4BB3F91C30D31A07EEF3
:10255000903AB8EEE77ADDED047A67EE276A254B0C
:10256000B3F91E301A46234BB3F91C30D31A07EEC9
:10257000903AB8EEE77AC6EE877ACDED037A1D4B36
:102580009B7D184628F054F84FF000024FF080432E
:1025900027F0B8FE03460C461846214628F084F87A
:1025A000034604939DED047ADDED037A77EE277AF6
:1025B000FDEEE77A17EE903AADF816300F4BB3F90F
:1025C0000030BDF916209A4204DB0C4B1B88ADF895
:1025D00016300AE00A4BB3F90030BDF916209A42D2
:1025E00003DC074B1B88ADF81630BDF916301846D2
:1025F00006B010BD6835002090C404005CC504001E
:102600005EC5040010B58AB04FF0000309934FF087
:10261000000308934FF0000307934548FFF7CAFAF9
:102620000690069B002B11D0424805F0C7F90246E0
:10263000069B009340F23F133F49022005F000FA49
:10264000069B07EE903AF8EE677A6CE00DF10E0308
:102650001846FFF7A1FC0690069B0593059B002BEF
:1026600005D0344A4FF4A171059802F0A9FDFFF797
:10267000B1FA0690069B0493049B002B05D02D4ACB
:1026800040F24511049802F09BFD294B5B8B1BB275
:102690001A46274B1B8B1BB2D31A07EE903AB8EEA3
:1026A000E77AF2EE006AC7EE267ACDED097ABDF937
:1026B0000E301A461E4BB3F92030D31A07EE903A6B
:1026C000B8EEE77ADDED097A67EE276A184BB3F9C1
:1026D00022301A46164BB3F92030D31A07EE903A3F
:1026E000B8EEE77AC6EE877ACDED087A104B1B8BF1
:1026F0001BB2184627F09CFF4FF000020F4B27F04B
:1027000001FE03460C461846214627F0CDFF03463E
:1027100009939DED097ADDED087A77EE277ACDED04
:10272000077ADDED077AB0EE670A0AB010BD00BF88
:102730006835002090C4040000C50400000020405B
:1027400000B585B02048FFF735FA0390039B002BB6
:102750000DD01E4805F032F90246039B00934FF45A
:10276000AC731B49022005F06BF9039B28E0FFF7CF
:1027700069FC0390039B002B0DD0144805F01EF953
:102780000246039B009340F25B131149022005F0BF
:1027900057F9039B14E0FFF71DFA0390039B002BEE
:1027A0000DD00A4805F00AF90246039B00934FF446
:1027B000AF730749022005F043F9039B00E00023B3
:1027C000184605B05DF804FB6835002090C404008D
:1027D00000C5040084B00190244B0393019B002B9F
:1027E00040D0234B1A680399019B00BF00BF00BF74
:1027F00000BF00BF00BF00BF00BF8A422FD000BF94
:1028000000BF00BF00BF00BF00BF00BF00BF00BFD0
:1028100000BF00BF00BF00BF00BF00BF00BF00BFC0
:1028200000BF00BF00BF00BF00BF00BF00BF00BFB0
:1028300000BF00BF00BF00BF00BF00BF00BF00BFA0
:1028400000BF00BF00BF00BF00BF00BF00BF00BF90
:1028500000BF00BF00BF00BF00BF00BF00BF013B03
:10286000C3D1019300BF04B0704700BF0024F4003F
:10287000F02D002000B583B00190019B4FF47A72D7
:1028800002FB03F31846FFF7A5FF00BF03B05DF896
:1028900004FB000000B583B01D4B1B681846FFF712
:1028A0005BF80190019B002B09D0019BCE221949B6
:1028B000012005F0AEF8FFF79DF8019B23E0FFF73C
:1028C0006FF80190019B002B09D0019BD122114987
:1028D000012005F09EF8FFF78DF8019B13E0FFF74C
:1028E00089F80190019B002B09D0019BD422094952
:1028F000012005F08EF8FFF77DF8019B03E005202D
:10290000FFF7B8FF0023184603B05DF804FB00BFD3
:102910008C350020A8C5040000B585B001900B4699
:102920008DF80330019B002B01D10E2312E0019B97
:102930001B680A4A1360FFF707F89DF80330002B65
:1029400007D0FFF7A7FF0390039B002B01D0FFF7F1
:1029500051F80023184605B05DF804FB8C350020C3
:1029600082B003468DF807309DF8073003F01F0250
:1029700005499DF907305B09012000FA02F241F890
:10298000232000BF02B0704700E100E082B00346A0
:102990008DF807309DF8073003F01F0206499DF9B6
:1029A00007305B09012000FA02F2603341F823206E
:1029B00000BF02B0704700BF00E100E082B00346F4
:1029C00000918DF807309DF90730002B0CDA009B41
:1029D000DAB20C499DF8073003F00F03043B5201B3
:1029E000D2B20B441A7609E0009BDAB206499DF98F
:1029F00007305201D2B20B4483F8002300BF02B06B
:102A0000704700BF00ED00E000E100E000B583B0DA
:102A100003460A468DF8073013468DF806309DF8B8
:102A200006209DF9073011461846FFF7C7FF9DF9AC
:102A300007301846FFF7AAFF9DF907301846FFF741
:102A40008FFF00BF03B05DF804FB00B583B0034601
:102A5000ADF80630BDF80630184600F026F80346FB
:102A60001B68012B0CBF01230023DBB2184603B007
:102A70005DF804FB00B585B00346ADF80630BDF83F
:102A80000630184600F011F803461A46002313607A
:102A9000BDF80630184600F008F803461B6803939B
:102AA000039B00BF05B05DF804FB82B00346ADF8A0
:102AB0000630BDF8063003F1804303F5C0431846E5
:102AC00002B0704782B00190034A019BC2F8043300
:102AD00000BF02B0704700BF0060004082B00190AC
:102AE000034BD3F80423019B1340184602B07047F0
:102AF0000060004082B00190084A019B03F5A27378
:102B000052F82330054943F00102019B03F5A273FB
:102B100041F8232000BF02B0704700BF00600040B2
:102B200084B00390029113468DF80730144A039B3A
:102B300003F5A27352F82330114923F4473323F4E9
:102B40004073039A02F5A27241F822300C4A039BAB
:102B500003F5A27352F82320029B1B0203F4F851E1
:102B60009DF807301B0403F440330B4304491A4318
:102B7000039B03F5A27341F8232000BF04B0704704
:102B80000060004082B00190054A019B03F5A273EA
:102B900052F823301B0A03F01F03184602B0704797
:102BA0000060004082B00190064A019B03F5A273C9
:102BB00052F823301B0C03F00303DBB2184602B0BB
:102BC000704700BF0060004082B001904FF0A0430A
:102BD000184602B0704700B585B00190084611460E
:102BE0001A4603468DF803300B468DF80230134623
:102BF0008DF8013001AB1846FFF7E6FF03909DF812
:102C000003209DF802305B001A439DF801309B00C1
:102C10001A439DF818301B0242EA03019DF81C304C
:102C20001B04019A1943039B02F5E07243F822103A
:102C300000BF05B05DF804FB00B585B003900B46FE
:102C40008DF80B309DF80B20002301930023009397
:102C50001346002200210398FFF7BDFF00BF05B017
:102C60005DF804FB00B585B0019001AB1846FFF795
:102C7000ABFF0390019A039B02F5E07253F82230F8
:102C800023F002030293019A039B02F5E07202997A
:102C900043F8221000BF05B05DF804FB00B585B015
:102CA00001900B468DF8033001AB1846FFF78CFFFF
:102CB0000390019A039B02F5E07253F82230019AC7
:102CC00023F44031039B02F5E07243F82210019A8D
:102CD000039B02F5E07253F822309DF803201204A2
:102CE0001146019A1943039B02F5E07243F8221042
:102CF00000BF05B05DF804FB00B585B0019001ABE5
:102D00001846FFF761FF0390039800F020F8024691
:102D1000019B22FA03F303F00103184605B05DF8A6
:102D200004FB00B585B0019001AB1846FFF74CFFDE
:102D30000390019A039B02F5E07253F822301B0CBA
:102D400003F00303DBB2184605B05DF804FB82B064
:102D50000190019BD3F81035184602B0704700B5BA
:102D600087B00390029101924FF0A0430493039B1C
:102D7000059311E0059B9B0006AA134453F8083CF9
:102D80001846FFF7E4FF0246019B1A60019B0433DB
:102D90000193059B01330593039A029B1344059A03
:102DA0009A42E7D300BF07B05DF804FB84B00190FE
:102DB0000091009B0393019BDB080293019B03F0AE
:102DC000070301930122019B02FA03F30399029A7C
:102DD0000A4412781340184604B0704784B001903A
:102DE0000091009B0393019BDB080293019B03F07E
:102DF00007030193039A029B13441B785AB20121E3
:102E0000019B01FA03F35BB2134359B2039A029B8D
:102E10001344CAB21A7000BF04B0704782B0019068
:102E20000C4A019B1344403393F90030002B09DB1B
:102E3000084A019B1344403393F90030072B01DC0F
:102E4000012300E0002303F00103DBB2184602B0C7
:102E5000704700BF9035002082B00190064A019B68
:102E60001344403393F90030072BCCBF01230023D8
:102E7000DBB2184602B070479035002082B0019056
:102E8000064A019B1344403393F90030DB43DBB225
:102E9000DB09DBB2184602B0704700BF9035002056
:102EA00084B00390029101928DF80330029B59B2D5
:102EB0000E4A039B134440330A461A700B49029B87
:102EC000019A41F823209DF8033083F00103DBB21F
:102ED000002B08D0029B083B039A51B2034A1344CB
:102EE0000A4683F8602000BF04B070479035002088
:102EF00082B00190044A019B13444033FF221A70B0
:102F000000BF02B0704700BF9035002082B0019032
:102F1000044A019B1344403393F90030184602B031
:102F2000704700BF9035002082B00190034A019B9A
:102F300052F82330184602B0704700BF9035002089
:102F400000B589B00390029113468DF80730FF2336
:102F50008DF81F309DF80730002B01D0002300E0D2
:102F6000082305939DF80730002B01D0082300E0CB
:102F700010230493059B069314E00F4A069B52F816
:102F80002330B3F1FF3F0AD19DF80730029A06992A
:102F90000398FFF785FF069B8DF81F3006E0069B20
:102FA00001330693069A049B9A42E6D39DF91F309B
:102FB000184609B05DF804FB9035002082B0034646
:102FC0008DF807309DF80730094A4FF0FF3142F87D
:102FD00023109DF80730072B07D99DF80730083BD1
:102FE000034A1344FF2283F8602000BF02B07047F9
:102FF0009035002000B583B0214B93F86830002B4A
:1030000003D008230093009B36E000238DF807309F
:1030100009E09DF807301846FFF76AFF9DF8073072
:1030200001338DF807309DF807301F2BF1D90023AD
:103030008DF8073009E09DF807301846FFF7BEFF0E
:103040009DF8073001338DF807309DF807300F2BBE
:10305000F1D906210620FFF7D9FC4FF4BE70FFF727
:1030600009FD4FF00040FFF72DFD054B012283F8CD
:10307000682000230093009B184603B05DF804FB12
:1030800090350020044B93F86830002B14BF0123C7
:103090000023DBB2184670479035002000B587B09A
:1030A000039002910192002305930398FFF7E6FE37
:1030B0000346002B02D00823059341E0029BDB78F6
:1030C0001A4601990398FFF73BFF03468DF813302A
:1030D0009DF91330B3F1FF3F30D0029B9B78002B5A
:1030E00003D00398FFF7BEFD05E0029B5B7819460D
:1030F0000398FFF7A1FD029BDB78002B08D09DF918
:103100001300029B1B781A460399FFF709FD17E08D
:103110009DF91330083B0D4A134493F96010029B4C
:103120001B789B015AB29DF91330083B0A4351B2F8
:10313000064A13440A4683F8602001E004230593FD
:10314000059B184607B05DF804FB00BF90350020D2
:1031500000B587B001900B468DF803300198FFF75A
:103160007BFE0346002B2FD00198FFF7CFFE0346CE
:10317000083B304A134493F960308DF816309DF8BF
:1031800016309B098DF815309DF81530032B0BD1A7
:103190000198FFF7B1FD0346002B01D0032300E0A7
:1031A00002238DF8173008E09DF81530012B01D16E
:1031B000022300E003238DF817309DF817301946DD
:1031C0000198FFF76BFD30E00198FFF727FE0346FB
:1031D000002B2AD00198FFF799FE03460493049B25
:1031E0009BB240339BB29B00ADF80E30049B184657
:1031F000FFF780FCBDF80E301846FFF73BFC9DF84A
:103200000330002B11D00198FFF780FE03461846CB
:10321000FFF78AFE0290029B002B06D00122049B3E
:1032200002FA03F31846FFF74DFC00BF07B05DF844
:1032300004FB00BF9035002000B595B00023139328
:10324000002303934FF48073ADF8463001231093AD
:103250000023129321E0BDF846301846FFF7F5FB36
:103260000346002B0ED01098FFF738FC0346002BC6
:1032700008D0BDF846301846FFF7FCFB139A109BA8
:1032800013431393109B5B001093BDF84630043337
:10329000ADF84630129B01331293129B072BDAD9FB
:1032A0004FF4BE70FFF7D1FB0346002B0DD04FF457
:1032B000BE70FFF7DFFB139B43F00043139303AB98
:1032C0001A4601210020FFF74AFD139BDBB2002BB9
:1032D00029D0012310930023129321E0109A139B0D
:1032E0001340002B16D01298FFF74CFC0D9012984B
:1032F000FFF758FC03468DF833301298FFF714FEA1
:103300000B900B9B002B05D09DF833200B9B114697
:103310000D989847109B5B001093129B01331293FA
:10332000129B072BDAD9139B002B80F2EE8000232F
:103330008DF83B300023029300230F930AE00F9B8C
:103340009B0014AA13444FF0FF3243F84C2C0F9B00
:1033500001330F930F9B002BF1D000238DF83B30EE
:103360000023129378E06B4A129B1344603393F965
:1033700000308DF82B309DF82B3023F0C0030993DB
:10338000644A129B1344603393F90030B3F1FF3F5A
:103390005FD001AB19460998FFF708FD0346002BE3
:1033A00057D09DF82B309B098DF823300998FFF7F3
:1033B000ADFD03461846FFF7B7FD0790079B002BAE
:1033C00003D19DF82330032B43D19DF82330032BE9
:1033D00004D102AB19460998FFF700FD0998FFF7E1
:1033E000A0FC03468DF81B3003AB19460998FFF784
:1033F000DDFC0590059B002B03D09DF81B30022BB4
:1034000006D0059B002B24D19DF81B30032B20D127
:103410009DF82330032B13D19DF81B30022B01D1D3
:10342000032300E002238DF813309DF81330194672
:103430000998FFF733FC9DF83B3001338DF83B30A2
:10344000079B002B05D09DF82320079B1146099868
:103450009847129B01331293129B072B83D99DF837
:103460003B30002B4CD001238DF83A306B461A4686
:1034700001210020FFF773FC00230F9314E00F9B42
:103480009B0014AA134453F8502C0F9B9B0014A9C3
:103490000B4453F8443C9A4203D000238DF83A3051
:1034A00005E00F9B01330F930F9B002BE7D09DF896
:1034B0003A30002B03D000238DF83B3020E000236E
:1034C0000F931AE00F9B9B0014AA134453F8502C3F
:1034D0000F9B9B0014A90B4443F8442C0F9B9B00AB
:1034E00014AA134453F8482C0F9B9B0014A90B44B7
:1034F00043F84C2C0F9B01330F930F9B002BE1D013
:103500009DF83B30002B7FF428AF00BF15B05DF86D
:1035100004FB00BF9035002082B003468DF80730D1
:103520009DF8073003F01F0206499DF907305B093B
:10353000012000FA02F2203341F8232000BF02B03C
:10354000704700BF00E100E082B001900B468DF8AB
:1035500003309DF80330019A134401221A6000BF22
:1035600002B0704784B001900B46ADF80230BDF850
:103570000230019A134400221A60BDF80230019A09
:1035800013441B680393039B00BF04B0704782B0D1
:1035900001900B46ADF80230BDF80230019A134499
:1035A0001B68002B14BF01230023DBB2184602B0B6
:1035B000704782B001900091019BD3F80022009BDC
:1035C000DB431A40019BC3F8002200BF02B07047E2
:1035D00082B001900091019B009AC3F8042300BFC0
:1035E00002B0704782B001900091019B009AC3F82D
:1035F000082300BF02B0704782B00190019B0522F2
:10360000C3F8002500BF02B0704782B00190019B53
:103610000022C3F8002500BF02B0704784B00390B9
:1036200002910192039B029AC3F80825039B019A19
:10363000C3F80C2500BF04B0704782B00190009120
:10364000019B009AC3F8242500BF02B0704784B0E4
:103650000190019BD3F8C4340393019B039AC3F8F0
:10366000C424039B184604B0704782B001900B46F7
:103670008DF803309DF80320019BC3F8882500BF17
:1036800002B0704782B00190019BD3F81835DBB2CD
:10369000184602B0704782B001900B468DF8033097
:1036A0009DF80320019BC3F81C2500BF02B07047A2
:1036B00082B001900091019B009AC3F8002200BFE4
:1036C00002B0704700B583B003468DF807309DF90E
:1036D00007301846FFF720FF00BF03B05DF804FB7A
:1036E00084B00190019B1B0B8DF80F309DF90F30BA
:1036F000184604B0704782B001904FF0A0431846BE
:1037000002B0704700B585B0019001AB1846FFF7D5
:10371000F2FF0390019B012202FA03F3194603987A
:1037200000F035F800BF05B05DF804FB00B585B0CA
:10373000019001AB1846FFF7DEFF0390019B0122C9
:1037400002FA03F31946039800F02BF800BF05B006
:103750005DF804FB00B585B0019001AB1846FFF79A
:10376000CAFF0390039800F00AF80246019B22FA70
:1037700003F303F00103184605B05DF804FB82B0C3
:103780000190019BD3F81035184602B0704782B003
:1037900001900091019B009AC3F8082500BF02B078
:1037A000704782B001900091019B009AC3F80C25EC
:1037B00000BF02B07047000084B00190244B039317
:1037C000019B002B40D0234B1A680399019B00BF3B
:1037D00000BF00BF00BF00BF00BF00BF00BF8A42E4
:1037E0002FD000BF00BF00BF00BF00BF00BF00BFA1
:1037F00000BF00BF00BF00BF00BF00BF00BF00BFD1
:1038000000BF00BF00BF00BF00BF00BF00BF00BFC0
:1038100000BF00BF00BF00BF00BF00BF00BF00BFB0
:1038200000BF00BF00BF00BF00BF00BF00BF00BFA0
:1038300000BF00BF00BF00BF00BF00BF00BF00BF90
:1038400000BF013BC3D1019300BF04B0704700BF6C
:103850000024F400F02D002084B001900323039392
:10386000019B03F00103002B02D04FF402430393AA
:10387000019B03F00203002B02D048F201230393C3
:10388000019B03F00403002B02D048F202230393B0
:10389000039B184604B0704700B585B001904FF007
:1038A000A042019B1B6803F5E07340F20C6142F8F3
:1038B00023104FF0A042019B5B6803F5E07340F2D8
:1038C0000C6142F82310019B1B681846FFF71AFF92
:1038D000019B5B681846FFF715FF4FF0A042019B64
:1038E0001B6803F5E07340F20D6142F823104FF0BE
:1038F000A042019B5B6803F5E07340F20D6142F862
:1039000023100420FFF758FF002303931EE0019BC0
:103910005B681846FFF71EFF0346002B03D0039B8E
:10392000002B17D124E0019B1B681846FFF7FEFE11
:103930000420FFF741FF019B1B681846FFF7E2FEDA
:103940000420FFF739FF039B01330393039B082BEC
:10395000DDDD00E000BF019B5B681846FFF7E6FE77
:103960000420FFF729FF019B5B681846FFF7CAFE9A
:1039700005B05DF804FB000000B589B0039002912A
:1039800001920093039B1B791A4613469B00134434
:10399000DB00354A13440793079B93F82230002B32
:1039A00003D008230693069B59E0079B019A1A60EF
:1039B000079B009A5A60079B00229A60079B00228F
:1039C00083F82520079B002283F82420029B9A7B02
:1039D000079B83F82720029B5B7B002B02D0029879
:1039E000FFF75AFF4FF0A042029B1B6803F5E073FC
:1039F00040F20C6142F823104FF0A042029B5B683A
:103A000003F5E07340F20C6142F82310039B1B683E
:103A10000593029B1968029B5B681A460598FFF79D
:103A2000FDFD029B9B6819460598FFF706FE079B64
:103A30001B68002B0CD0039B1B681846FFF750FE39
:103A400003461A46029B1B7B19461046FEF7DEFF13
:103A5000079B012283F8222000230693069B184629
:103A600009B05DF804FB00BFFC35002000B585B04F
:103A70000190019B1B791A4613469B001344DB00FF
:103A80001D4A13440393039B1B68002B08D0019B22
:103A90001B681846FFF724FE03461846FFF712FE80
:103AA000019800F049F8039B93F8273083F0010355
:103AB000DBB2002B17D04FF0A042019B1B68D3F85C
:103AC000083503F5E07340F2023142F823104FF05D
:103AD000A042019B1B68D3F80C3503F5E07340F25C
:103AE000023142F82310039B002283F8222000BFFA
:103AF00005B05DF804FB00BFFC35002000B585B0C3
:103B00000190019B1B791A4613469B001344DB006E
:103B1000084A13440393019B1B6802930298FFF722
:103B20006BFD039B022283F8222000BF05B05DF8E5
:103B300004FB00BFFC35002000B585B00190019B5F
:103B40001B791A4613469B001344DB000D4A1344AD
:103B50000393019B1B6802934FF0FF310298FFF71C
:103B600041FD4FF0FF310298FFF723FD0298FFF768
:103B70004CFD039B012283F8222000BF05B05DF8B5
:103B800004FB00BFFC35002000B585B00390029116
:103B9000009313468DF80730009B1B789DF8072093
:103BA0009A4210D9009B1B781A46029B13441B783B
:103BB00019460398FFF76FFD009B1B780133DAB2BB
:103BC000009B1A700DE09DF81830002B05D01C21C9
:103BD0000398FFF7B9FC002304E014210398FFF7D2
:103BE000B3FC0123184605B05DF804FB10B584B0A2
:103BF00003900291009313468DF80730009B1B78C9
:103C00009DF807209A4228D9009B1B781A46029BF0
:103C10009C180398FFF736FD03462370009B1B7822
:103C20000133DAB2009B1A70009B1B781A469DF88C
:103C30000730013B9A4204D102210398FFF738FD77
:103C400005E0009B1B789DF807209A4204D02021B4
:103C50000398FFF779FC00E000BF04B010BD00B589
:103C600089B00590049103920293049B1B78002B6A
:103C700005D1039B1B789DF828209A4201D101238E
:103C800000E000238DF81F309DF81F3003F0010382
:103C90008DF81F30049B1B78002B0FD04FF49271CE
:103CA0000598FFF75FFC4FF48E710598FFF75AFCFB
:103CB0004FF484710598FFF755FC71E04FF4927151
:103CC0000598FFF764FC0346002B0CD04FF492716B
:103CD0000598FFF747FC14210598FFF735FC049B76
:103CE00001221A705CE04FF48E710598FFF74FFCCB
:103CF0000346002B2BD04FF48E710598FFF732FC52
:103D00004FF492710598FFF742FC0346002B0CD04C
:103D10004FF492710598FFF725FC14210598FFF7E1
:103D200013FC049B01221A703AE09DF828209DF8AC
:103D30002C300093039B02990598FFF725FF03465B
:103D400083F00103DBB2002B2AD000233CE04FF4C8
:103D500084710598FFF71BFC0346002B20D04FF41D
:103D600084710598FFF7FEFB4FF492710598FFF7F9
:103D70000EFC0346002B0CD04FF492710598FFF710
:103D8000F1FB14210598FFF7DFFB049B01221A7059
:103D900006E09DF82820039B02990598FFF726FF6F
:103DA0009DF81F30002B0ED04FF482710598FFF75D
:103DB000EEFB0346002B06D04FF482710598FFF707
:103DC000D1FB002300E00123184609B05DF804FB95
:103DD00000B58BB00590049103928DF80B30002351
:103DE000099342F2107307934FF482710498FFF71E
:103DF000B9FB4FF492710498FFF7B4FB4FF48E7146
:103E00000498FFF7AFFB4FF484710498FFF7AAFB07
:103E100000210498FFF74CFC059B002283F8262024
:103E2000059B002283F8232020210498FFF78CFBB8
:103E300008210498FFF788FB059B03F126019DF8F4
:103E40000B209DF8303000930B4603990498FFF740
:103E50009BFE059B1B68002B0DD0059B40F2862224
:103E60009A60059B9B6819460498FFF7B1FB33E005
:103E7000079B013B0793079B002B12DD059B03F17A
:103E80002301059B03F126029DF8303001939DF834
:103E90000B300093039B0498FFF7E1FE0346002BD1
:103EA000E6D1059B93F82330002B0AD00498FFF746
:103EB000CEFB0890089B002B03D00898FFF7CCFCA2
:103EC0000990079B002B07DC0498FFF79EFB0498E2
:103ED000FFF792FB03230993099B18460BB05DF88B
:103EE00004FB00B58BB00590049103928DF80B3064
:103EF0000023099342F2107307934FF482710498E0
:103F0000FFF730FB4FF492710498FFF72BFB4FF44F
:103F10008E710498FFF726FB4FF484710498FFF725
:103F200021FB059B002283F82620059B002283F8B5
:103F300023209DF80B30012B04D102210498FFF7B8
:103F4000B7FB03E001210498FFF7B2FB202104989E
:103F5000FFF7FAFA00210498FFF7F6FA059B1B68B1
:103F6000002B0DD0059B40F286229A60059B9B6832
:103F700019460498FFF72CFB32E0079B013B07939F
:103F8000079B002B11DD059B03F12301059B03F12A
:103F90002602002301939DF80B300093039B0498A5
:103FA000FFF75DFE0346002BE7D1059B93F8233016
:103FB000002B0AD00498FFF74AFB0890089B002BBF
:103FC00003D00898FFF748FC0990079B002B07DCFB
:103FD0000498FFF71AFB0498FFF70EFB03230993DD
:103FE000099B18460BB05DF804FB00B589B005903D
:103FF000049103920293002307934FF0FF3104983A
:10400000FFF7F0FA059B93F82430DBB2002B09D0C0
:10401000059B9B6819460498FFF7DAFA112307936A
:10402000079B66E0029B03F00403002B0CBF0123F7
:104030000023DAB2059B83F82420029B03F00803D7
:10404000002B03D006230793079B52E0059B029A9F
:104050009A61059B039A0C3307CA83E80700039B08
:104060009A78059B83F82020039B5A68059BDA61A8
:10407000039B5B7819460498FFF7F7FA039B1B78BC
:10408000012B20D0039B1B78002B04D1029B03F053
:104090002003002B01D0012300E0002303F00103E3
:1040A000DAB2059B83F82120039B5A68039B997819
:1040B000059B93F8213000930B4604990598FFF770
:1040C00087FE07900CE0059B002283F82120039BCC
:1040D0005A68039B9B7804990598FFF702FF0790A5
:1040E000059B1B68002B03D1059B002283F824202D
:1040F000079B184609B05DF804FB000000B587B0C7
:1041000003900291019200230593039B1B791A46A9
:1041100013469B001344DB000C4A13440493019B99
:1041200003F00303002B03D006230593059B08E04F
:10413000039B1968019B029A0498FFF756FF0590AC
:10414000059B184607B05DF804FB00BFFC35002056
:1041500000B589B0039001921A460B468DF80B30DA
:1041600013468DF80A3005AB00221A605A609A6037
:104170009DF80B308DF815309DF80A308DF816300B
:10418000019B06939DF82830002B01D0202200E0EF
:10419000002205AB19460398FFF7B0FF0346184607
:1041A00009B05DF804FB00B589B0039001921A468E
:1041B0000B468DF80B3013468DF80A3005AB002204
:1041C0001A605A609A6001238DF814309DF80B3004
:1041D0008DF815309DF80A308DF81630019B069346
:1041E00005AB002219460398FFF788FF03461846DF
:1041F00009B05DF804FB10B58AB003900291029BF0
:1042000003F12301029B03F12600029BDC69029B60
:1042100093F82030029A92F82120019200932346CD
:1042200002460398FFF71BFD0346002B7DD1029B3E
:1042300093F8233083F00103DBB2002B3FD0029BC5
:104240001B7B022B03D0029B1B7B032B37D1029BD2
:10425000DA69029B1B699A4231D1029B5A69029B1F
:10426000DA61029BDA7B029B83F82020029B9B6928
:1042700003F02003002B14BF01230023DAB2029BBA
:1042800083F82120029B1B7B032B0ED1029BDA6952
:10429000029B93F82010029B93F8213000930B4669
:1042A00003990298FFF794FD40E0029BDA69029BB4
:1042B00093F8203003990298FFF713FE36E0029A34
:1042C00006AB0C3207CA83E80700029B93F8233041
:1042D000002B15D00398FFF7BAF90990099B03F05A
:1042E0000203002B03D001238DF814300BE0099B4F
:1042F00003F00403002B06D002238DF8143002E0F3
:1043000000238DF81430029B002283F82420029BA6
:104310009B6903F00403002B08D1029B1B68029ADF
:10432000516805AA1046984700E000BF0AB010BDCA
:1043300008B503490348FFF75EFF00BF08BD00BF93
:10434000FC3500200030004082B001904FF08042E8
:10435000019BC2F8043300BF02B0704782B00190E5
:104360004FF08042019BC2F8083300BF02B0704793
:1043700082B003468DF807309DF8073003F1804383
:1043800001221A6000BF02B0704784B00346ADF846
:104390000630BDF8063003F1804300221A60BDF8F4
:1043A000063003F180431B680393039B00BF04B0F6
:1043B000704782B00346ADF80630BDF8063003F111
:1043C00080431B68002B14BF01230023DBB2184677
:1043D00002B0704782B003468DF807309DF8073071
:1043E0004FF0804203F00303C2F8183500BF02B05B
:1043F000704782B003468DF807304FF08043D3F802
:104400000C3403F001129DF8073043F480339A42D4
:104410000CBF01230023DBB2184602B07047000036
:1044200082B003468DF807300A4A9DF907305B09D0
:1044300052F823209DF8073003F01F03012101FAF1
:1044400003F31340002B14BF01230023DBB21846F3
:1044500002B0704700E100E008B50020FFF7E0FF80
:10446000034683F00103DBB2002B03D006210020BA
:10447000FEF7CCFA00BF08BD3FDF704700BF18460B
:1044800040DF704700BF184608B503F01FFA034627
:10449000002B02D0FFF7F0FF09E04FF48070FFF728
:1044A00074FF0120FFF750FF0020FFF761FF08BDF8
:1044B00008B503F00BFA0346002B02D0FFF7E0FF2C
:1044C0000CE00420FFF754FF00BF0120FFF791FF2D
:1044D0000346002BF9D1024B00225A7008BD00BFE1
:1044E0002436002000B583B000230193134B1B78C2
:1044F000002B02D0852301931BE0104B00229A6011
:104500000E4B00225A600D4B00221A610B4B002209
:10451000DA60FFF7A1FF03F0D9F9034683F0010346
:10452000DBB2002B02D00120FFF754FF034B012226
:104530001A70019B184603B05DF804FB2436002076
:1045400084B001900091019B1B68039306E0039ADD
:10455000009B9A420DD0039B1B680393039B002B87
:10456000F5D1019B1A68009B1A60019B009A1A60A2
:1045700000E000BF04B0704784B00190019B1B684D
:104580000393039B002B03D0039B1A68019B1A60C3
:10459000039B184604B0704700B585B00190214BCD
:1045A0005B78DBB2002B19D0019B002B03D0019B61
:1045B0005B680020984700238DF80F300DF10F0342
:1045C000184602F06FF8174B5B680133154A5360C9
:1045D0009DF80F30184602F06FF81EE000238DF8AA
:1045E0000E300DF10E03184602F05CF8019B002B13
:1045F00003D001990C48FFF7A3FF0A4B5B68002B1F
:1046000001D1FFF741FF074B5B680133054A536057
:104610009DF80E30184602F04FF800BF05B05DF867
:1046200004FB00BF243600202C36002000B583B0E8
:1046300000238DF807300DF10703184602F032F819
:10464000094B5B68013B084A5360074B5B68002BD2
:1046500001D1FFF72DFF9DF80730184602F02CF826
:1046600000BF03B05DF804FB2436002000B585B020
:1046700003468DF807309DF80730002B02D10C4B14
:10468000039301E00B4B03930398FFF775FF029030
:10469000029B002B06D0029B5B689DF8072010460A
:1046A0009847F1E700BF00BF05B05DF804FB00BF0D
:1046B0002C3600203436002008B54FF48070FFF708
:1046C00078FE0346002B0CD04FF48070FFF75DFEA0
:1046D0000120FFF743FE0E4B01225A700020FFF726
:1046E000C5FF4FF48270FFF764FE0346002B0CD029
:1046F0004FF48270FFF749FE0220FFF72FFE044BB4
:1047000001229A700120FFF7B1FF00BF08BD00BF72
:104710002436002000B583B00190019B002B02D10C
:104720000020FFF7A3FF00BF03B05DF804FB00000B
:1047300082B003468DF807309DF8073003F01F0262
:1047400006499DF907305B09012000FA02F2203387
:1047500041F8232000BF02B0704700BF00E100E035
:1047600082B003468DF807309DF8073003F180438F
:1047700003F5E04301221A6000BF02B0704782B027
:104780000346ADF80630BDF8063003F1804303F56B
:10479000E0431B68002B14BF01230023DBB2184643
:1047A00002B0704784B00346ADF80630BDF806305D
:1047B00003F1804303F5E04300221A60BDF80630A0
:1047C00003F1804303F5E0431B680393039B00BFA1
:1047D00004B0704782B003468DF807300B468DF861
:1047E000063013468DF805300A499DF807309DF8CC
:1047F000052051331B010B4404331A6005499DF811
:1048000007309DF8062051331B010B441A6000BF8E
:1048100002B070470070004082B003468DF8073048
:104820000B46ADF804301346ADF80230BDF9043044
:1048300099B2BDF902301A0405489DF807300A43C1
:104840001B01034403F21C531A6000BF02B07047FF
:104850000070004082B00190034A019BC2F804330B
:1048600000BF02B0704700BF0070004082B00190EE
:10487000034A019BC2F8083300BF02B0704700BF73
:104880000070004084B003460A468DF80730134696
:104890008DF806309DF80630002B01D1802300E012
:1048A000402303939DF807305B00039A02FA03F359
:1048B000184604B070470000024B0122C3F80025DF
:1048C00000BF704700700040024B0022C3F8002573
:1048D00000BF70470070004082B001900091054A0F
:1048E000019BC2F82C36034A009BC2F8303600BF49
:1048F00002B070470070004082B003468DF8073068
:10490000034A9DF80730C2F8F03500BF02B0704787
:104910000070004082B003468DF80730034A9DF8CE
:104920000730C2F8F43500BF02B070470070004095
:1049300000B583B003468DF807309DF9073018465F
:10494000FFF7F6FE00BF03B05DF804FB00B58DB0C5
:104950004FF48270FFF713FF0346002B46D04FF44D
:104960008270FFF71FFF8C4B93F82E3083F001030A
:10497000DBB2002B04D1884B93F82F30002B35D0BD
:1049800000238DF81830844B5B680793824B1B899A
:104990009BB2ADF82030804BDB68002B03D17E4BFF
:1049A00000221A7419E07C4B1A8B7B4B5A837A4B8A
:1049B000DB68794A5360784B1A8B774B1A81764BB8
:1049C0000022DA60744B93F82E3083F00103DBB2DF
:1049D000002B02D00020FFF7C3FE6F4B1B6806AA16
:1049E000104698476C4B002283F82F206A4B93F8AF
:1049F0002E30002B62D04FF48070FFF7C0FE0346CC
:104A0000002B5BD04FF48070FFF7CCFE624B5A8BCB
:104A1000614B93F82D309BB29A421CD95E4B5A8B56
:104A20005D4B93F82D309BB2D31A9AB25A4B5A83EE
:104A3000594B5A68584B1B899BB21946564B5B8B96
:104A4000CB1A5B001A44544B93F82D30194610468C
:104A5000FFF742FF2BE0504B5A8B4F4B93F82D3012
:104A60009BB29A4214D14C4BDB68002B10D04A4BBE
:104A7000012283F82F20484B00225A83464BDA68E4
:104A8000454B93F82D3019461046FFF725FF0EE0F1
:104A9000414B5A8B404B93F82D309BB29A4206D132
:104AA0003D4B012283F82F203B4B00225A834FF4C9
:104AB0008270FFF777FE0420FFF752FE4FF48870F4
:104AC000FFF75DFE0346002B0ED04FF48870FFF712
