:020000021000EC
:10F000000000012033F10100D9F00100DDAA040065
:10F01000DDF00100DFF00100E1F001000000000080
:10F02000000000000000000000000000E3F001000C
:10F03000E5F0010000000000E7F00100E9F0010048
:10F0400015A90200EDF00100EFF0010061A7020038
:10F05000F3F00100F5F00100699602006DAA0200CC
:10F06000FBF00100FDF00100FFF0010001F10100E3
:10F0700003F1010005F1010007F1010009F10100B0
:10F080000BF101002DBE0200B5FF020011F10100DD
:10F090006DBE020015F1010009E4020019F1010042
:10F0A0001BF101001DF101001FF1010021F1010020
:10F0B00023F1010025F10100000000000000000024
:10F0C00027F1010029F101002BF101002DF10100D0
:08F0D0002FF1010031F10100F4
:10F0D800FEE7FEE7FEE7FEE7FEE7FEE7FEE7FEE700
:10F0E800FEE7FEE7FEE7FEE7FEE7FEE7FEE7FEE7F0
:10F0F800FEE7FEE7FEE7FEE7FEE7FEE7FEE7FEE7E0
:10F10800FEE7FEE7FEE7FEE7FEE7FEE7FEE7FEE7CF
:10F11800FEE7FEE7FEE7FEE7FEE7FEE7FEE7FEE7BF
:10F12800FEE7FEE7FEE7FEE7FEE70348854600F058
:10F13800C5F800F003B87047000001203749384887
:10F148000A1A02D0072291438D46364936480A1AD0
:10F1580006D00722914381F30988022282F314889A
:10F1680032483349334A00F048F833483349344A7F
:10F1780000F043F833483449344A00F03EF8344844
:10F188003449354A00F039F834483549354A00F0F1
:10F1980034F835483549364A00F02FF835483649AD
:10F1A800364A00F02AF836483649374A00F025F83A
:10F1B80036483749002200F02BF8364836490022F5
:10F1C80000F026F835483649091A082903DB0022D9
:10F1D8000260043001601F481F49884205D0026858
:10F1E800043003B4904703BCF7E700208646EC469A
:10F1F800002000212B4A9047FEE7884207D0521A88
:10F2080005D0037801300B700131013AF9D170470C
:10F21800884202D002700130FAE7704700000120EE
:10F2280000FC0020000001200000012024FD040053
:10F23800182B0020002C0020B0F20100B0F20100D1
:10F2480064C9040024FD0400182B0020182B00209A
:10F2580064C9040064C9040064C9040064C90400E2
:10F2680064C9040064C9040064C9040064C90400D2
:10F2780024FD04000CFE0400002C0020002C0020BB
:10F288000CFE0400002C0020102C0020102C002064
:10F29800488E0020488E0020488E0020488E00208E
:08F2A80048920020A1120200AF
:10F2B000024B034A1A6000BF704700BF182B0020A2
:10F2C0000090D00308B500F00DF90346002B06D0DE
:10F2D000744B1B681B0A744A03F01F03136000F091
:10F2E0002DF90346002B02D0704B714A1A6000F0D2
:10F2F00041F90346002B06D06E4B1B685B0B6E4A30
:10F3000003F00703136000F061F90346002B05D0FA
:10F310006A4BDB68694A23F08073D36000F072F9AE
:10F320000346002B0ED04FF080430022C3F80C217F
:10F330004FF080430022C3F810214FF08043002299
:10F34000C3F8382500F08AF90346002B02D05C4B45
:10F3500003221A6000F09EF90346002B0BD0594B94
:10F3600005221A60584B01221A60584B00221A607D
:10F37000574B3F221A6000F0A9F90346002B76D0C4
:10F380004FF08053534AD3F80434C2F820354FF07D
:10F390008053504AD3F80834C2F824354FF08053D4
:10F3A0004C4AD3F80C34C2F828354FF08053494A00
:10F3B000D3F81034C2F82C354FF08053454AD3F8B7
:10F3C0001434C2F830354FF08053424AD3F8183421
:10F3D000C2F834354FF080533E4AD3F81C34C2F89B
:10F3E00040354FF080533B4AD3F82034C2F84435BF
:10F3F0004FF08053374AD3F82434C2F848354FF0E1
:10F400008053344AD3F82834C2F84C354FF0805337
:10F41000304AD3F82C34C2F850354FF080532D4A7F
:10F42000D3F83034C2F854354FF08053294AD3F81A
:10F430003434C2F860354FF08053264AD3F838345C
:10F44000C2F864354FF08053224AD3F83C34C2F8F6
:10F4500068354FF080531F4AD3F84034C2F86C35FA
:10F460004FF080531B4AD3F84434C2F8703500F093
:10F4700049F90346002B05D0174B1B68174A03F0C8
:10F480004F031360164BD3F88830154A43F47003CA
:10F49000C2F88830BFF34F8FBFF36F8FFFF708FFBD
:10F4A00000BF08BD240300104035014074C0074070
:10F4B0000DF0ADBA440200103C050040F0ED00E054
:10F4C000A0050040105600408856004018560040E5
:10F4D0001456004000C0004058020010E40E0040E6
:10F4E00000ED00E0124B1B68DBB2062B1DD1114B67
:10F4F0001B6803F00F03002B17D10F4B1B6803F0A1
:10F50000F003302B01D1012310E00B4B1B6803F0FB
:10F51000F003402B01D1012308E0074B1B6803F0E7
:10F52000F003502B01D1012300E00023184670475F
:10F53000E00F00F0E40F00F0E80F00F00A4B1B684A
:10F54000DBB2062B0DD1094B1B6803F00F03002B18
:10F5500007D1074B1B6803F0F003302B01D10123C7
:10F5600000E0002318467047E00F00F0E40F00F0C1
:10F57000E80F00F0124B1B68DBB2062B1DD1114BBC
:10F580001B6803F00F03002B17D10F4B1B6803F010
:10F59000F003302B01D1012310E00B4B1B6803F06B
:10F5A000F003402B01D1012308E0074B1B6803F057
:10F5B000F003502B01D1012300E0002318467047CF
:10F5C000E00F00F0E40F00F0E80F00F00A4B1B68BA
:10F5D000DBB2062B0DD1094B1B6803F00F03002B88
:10F5E00007D1074B1B6803F0F003302B01D1012337
:10F5F00000E0002318467047E00F00F0E40F00F031
:10F60000E80F00F0124B1B68DBB2062B1DD1114B2B
:10F610001B6803F00F03002B17D10F4B1B6803F07F
:10F62000F003302B01D1012310E00B4B1B6803F0DA
:10F63000F003402B01D1012308E0074B1B6803F0C6
:10F64000F003502B01D1012300E00023184670473E
:10F65000E00F00F0E40F00F0E80F00F00A4B1B6829
:10F66000DBB2062B0DD1094B1B6803F00F03002BF7
:10F6700007D1074B1B6803F0F003302B01D10123A6
:10F6800000E0002318467047E00F00F0E40F00F0A0
:10F69000E80F00F00A4B1B68DBB2062B0DD1094BBB
:10F6A0001B6803F00F03002B07D1074B1B6803F007
:10F6B000F003302B01D1012300E0002318467047EE
:10F6C000E00F00F0E40F00F0E80F00F00A4B1B68B9
:10F6D000DBB2062B0DD1094B1B6803F00F03002B87
:10F6E00007D1074B1B6803F0F003502B01D1012316
:10F6F00000E0002318467047E00F00F0E40F00F030
:10F70000E80F00F0124B1B68DBB2062B1DD1114B2A
:10F710001B6803F00F03002B17D10F4B1B6803F07E
:10F72000F003302B01D1012310E00B4B1B6803F0D9
:10F73000F003402B01D1012308E0074B1B6803F0C5
:10F74000F003502B01D1012300E00023184670473D
:10F75000E00F00F0E40F00F0E80F00F07047704792
:10F7600082B003468DF807309DF8073003F01F0282
:10F7700006499DF907305B09012000FA02F2603367
:10F7800041F8232000BF02B0704700BF00E100E055
:10F79000BFF34F8F054BDB6803F4E0620349044B72
:10F7A0001343CB60BFF34F8F00BFFDE700ED00E0D8
:10F7B0000400FA053EDF704700BF184682B0019092
:10F7C0004FF0A043184602B0704700B585B00190D5
:10F7D000084611461A4603468DF803300B468DF84D
:10F7E000023013468DF8013001AB1846FFF7E6FFF3
:10F7F00003909DF803209DF802305B001A439DF8AA
:10F8000001309B001A439DF818301B0242EA0301A5
:10F810009DF81C301B04019A1943039B02F5E0720A
:10F8200043F8221000BF05B05DF804FB00B585B0B9
:10F8300003900B468DF80B309DF80B2000230193AD
:10F84000002300931346002200210398FFF7BDFF19
:10F8500000BF05B05DF804FB00B585B0019001ABB9
:10F860001846FFF7ABFF0390039800F00AF8024632
:10F87000019B22FA03F303F00103184605B05DF87B
:10F8800004FB82B00190019BD3F81035184602B0FA
:10F890007047000084B00190244B0393019B002B20
:10F8A00040D0234B1A680399019B00BF00BF00BFE3
:10F8B00000BF00BF00BF00BF00BF8A422FD000BF03
:10F8C00000BF00BF00BF00BF00BF00BF00BF00BF40
:10F8D00000BF00BF00BF00BF00BF00BF00BF00BF30
:10F8E00000BF00BF00BF00BF00BF00BF00BF00BF20
:10F8F00000BF00BF00BF00BF00BF00BF00BF00BF10
:10F9000000BF00BF00BF00BF00BF00BF00BF00BFFF
:10F9100000BF00BF00BF00BF00BF00BF00BF013B72
:10F92000C3D1019300BF04B0704700BF0024F400AE
:10F93000182B002000B583B00190019B4FF47A7220
:10F9400002FB03F31846FFF7A5FF00BF03B05DF805
:10F9500004FB82B04FF010235B690193019BB3F16C
:10F96000FF3F04D14FF080535B691B0300E0019B14
:10F97000184602B070470000024BD3F80435184611
:10F98000704700BF00B0004000B585B00190019BFA
:10F990000D4A9B1A0D4AA2FB03231B090393039BE9
:10F9A000322B0BD97B460293094B1B68002B04D0EA
:10F9B000074B1B680298984700E000DE039B18463F
:10F9C00005B05DF804FB00BF102D0020CDCCCCCCE1
:10F9D0007052002084B000B589B003900BA880E875
:10F9E0000E00BDF840301A46B14903200EF0EFFD7D
:10F9F000DDED0B7AF5EEC07AF1EE10FA0AD5DDED09
:10FA00000B7ABFEE007AF4EEC77AF1EE10FA01DD60
:10FA1000A84A00E0A84ADDED0B7AFDEEE77A17EE82
:10FA2000901ADDED0B7AF5EEC07AF1EE10FA12DDE8
:10FA30009DED0B7ADDED0B7AFDEEE77AF8EEE77AD5
:10FA400077EE677A9FEDA17A67EE877AFDEEE77A27
:10FA500017EE903A11E0DDED0B7AFDEEE77AB8EEA5
:10FA6000E77ADDED0B7A77EE677A9FED987A67EEAD
:10FA7000877AFDEEE77A17EE903A00930B468F49AE
:10FA800003200EF0CFFDDDED0C7AF5EEC07AF1EE3D
:10FA900010FA0AD5DDED0C7ABFEE007AF4EEC77AE3
:10FAA000F1EE10FA01DD834A00E0834ADDED0C7AC5
:10FAB000FDEEE77A17EE901ADDED0C7AF5EEC07ADE
:10FAC000F1EE10FA12DD9DED0C7ADDED0C7AFDEE13
:10FAD000E77AF8EEE77A77EE677A9FED7C7A67EE61
:10FAE000877AFDEEE77A17EE903A11E0DDED0C7AB9
:10FAF000FDEEE77AB8EEE77ADDED0C7A77EE677A1D
:10FB00009FED727A67EE877AFDEEE77A17EE903A0C
:10FB100000930B466A4903200EF084FDDDED0D7A5B
:10FB2000F5EEC07AF1EE10FA0AD5DDED0D7ABFEEF2
:10FB3000007AF4EEC77AF1EE10FA01DD5D4A00E0DA
:10FB40005D4ADDED0D7AFDEEE77A17EE901ADDEDF8
:10FB50000D7AF5EEC07AF1EE10FA12DD9DED0D7A18
:10FB6000DDED0D7AFDEEE77AF8EEE77A77EE677A6B
:10FB70009FED567A67EE877AFDEEE77A17EE903AB8
:10FB800011E0DDED0D7AFDEEE77AB8EEE77ADDED16
:10FB90000D7A77EE677A9FED4D7A67EE877AFDEE04
:10FBA000E77A17EE903A00930B46464903200EF091
:10FBB00039FDDDED0F7AF5EEC07AF1EE10FA0AD5D7
:10FBC000DDED0F7ABFEE007AF4EEC77AF1EE10FAAF
:10FBD00001DD384A00E0384ADDED0F7AFDEEE77AC4
:10FBE00017EE901ADDED0F7AF5EEC07AF1EE10FA0D
:10FBF00012DD9DED0F7ADDED0F7AFDEEE77AF8EE7E
:10FC0000E77A77EE677A9FED317A67EE877AFDEED5
:10FC1000E77A17EE903A11E0DDED0F7AFDEEE77A24
:10FC2000B8EEE77ADDED0F7A77EE677A9FED277A07
:10FC300067EE877AFDEEE77A17EE903A00930B466F
:10FC4000214903200EF0EEFCDDED0E7AF5EEC07AD0
:10FC5000F1EE10FA0AD5DDED0E7ABFEE007AF4EE81
:10FC6000C77AF1EE10FA01DD124A00E0124ADDED2A
:10FC70000E7AFDEEE77A17EE901ADDED0E7AF5EECC
:10FC8000C07AF1EE10FA23DD9DED0E7ADDED0E7AED
:10FC9000FDEEE77AF8EEE77A77EE677A9FED0B7A7A
:10FCA00067EE877AFDEEE77A17EE903A22E000BF22
:10FCB00090C90400C8C90400CCC90400D0C904001C
:10FCC000F0C9040014CA040038CA04000000C84285
:10FCD000DDED0E7AFDEEE77AB8EEE77ADDED0E7A2D
:10FCE00077EE677A1FED077A67EE877AFDEEE77A9F
:10FCF00017EE903A00930B463F4903200EF092FC1A
:10FD00000398FFF741FE0790DDED0C7AFDEEE77AF0
:10FD1000CDED027A029B5BB2DBB28DF814309DED23
:10FD20000C7ADDED0C7AFCEEE77ACDED027A029BDF
:10FD3000DBB207EE903AF8EEE77A77EE677A9FED5E
:10FD40002F7A67EE877AFCEEE77ACDED027A029B96
:10FD5000DBB28DF81530DDED0D7AFDEEE77ACDEDF5
:10FD6000027A029B5BB2DBB28DF816309DED0D7A04
:10FD7000DDED0D7AFCEEE77ACDED027A029BDBB287
:10FD800007EE903AF8EEE77A77EE677A9FED1B7A06
:10FD900067EE877AFCEEE77ACDED027A029BDBB262
:10FDA0008DF81730DDED0B7AFCEEE77ACDED027AB7
:10FDB000029BDBB28DF81830DDED0F7AFCEEE77AAE
:10FDC000CDED027A029BDBB28DF81930DDED0E7AB3
:10FDD000FCEEE77ACDED027A029BDBB28DF81A30A9
:10FDE00005AA07230799062004F012F800BF09B0FE
:10FDF0005DF804EB04B070475CCA04000000C84220
:10FE000000B5A7B00023ADF8963001231D931DABBC
:10FE10001946524824F0D0FC2390239B002B04D099
:10FE20004F4AB42123980BF0BFF801231D934B4B8D
:10FE30001B881DAA4B49184624F004FE2290229BE1
:10FE4000002B04D0464AB62122980BF0ADF835239A
:10FE50001D931DAA02AB1146184624F075FA219095
:10FE6000219B002B04D03E4ABB2121980BF09CF82B
:10FE700000238DF895300023249365E0249B5B00DC
:10FE800026AA134433F8903C6A461146184624F0DB
:10FE9000FBF92090209B002B04D0314AC0212098F0
:10FEA0000BF082F89DF80030012B2ED1BDF8020036
:10FEB000BDF896305B002C4A1344194624F036FDF9
:10FEC0000346002B21D1BDF89630274A32F8133073
:10FED0004FF6FF72934218D0BDF896305B00234A6C
:10FEE0001A446B461146184624F08AFA1F901F9B4D
:10FEF000002B04D01A4ACA211F980BF055F8BDF800
:10FF000096300133ADF896301BE09DF80030032B9E
:10FF100017D19DF895305B00154A1A446B4611467F
:10FF2000184624F06DFA1E901E9B002B04D00C4A3C
:10FF3000CF211E980BF038F89DF8953001338DF8DD
:10FF40009530249B013324931D9B249A9A4295D388
:10FF5000BDF89630184627B05DF804FB382C002019
:10FF60007CCA04003A2C00203C2C0020A42C002049
:10FF70000C2D002010B584B0524B1B6803F4804355
:10FF8000002B2ED0504B1B68032B2ADD2F214F480E
:10FF90002CF07DF80346002B06D02F214B482CF087
:10FFA00076F803465C1C0EE05C2148482CF06FF8A4
:10FFB0000346002B06D05C2144482CF068F8034629
:10FFC0005C1C00E0414CFFF7D7FC0246404B1B880D
:10FFD0000193404B00931346E1222146042013F085
:10FFE00051FD3B4B1B8819463B4A0B469B000B447B
:10FFF0009B0013441A88364B1B881946374B33F83D
:020000022000DC
:1000000011301946104620F0C3FE0390039B002BCD
:1000100004D02E4AE52103980AF0C6FF20F09AFC8E
:10002000002302932A4B1B88194602AA04230120AD
:1000300003F0EEFE264B1B8801339AB2244B1A8044
:10004000234B1B88322B08D8254B1B8803F5807364
:100050009BB2184603F040FC31E01A4B1B6803F4D6
:100060008043002B2BD0184B1B68032B27DD2F213F
:1000700016482CF00CF80346002B06D02F2113480D
:100080002CF005F803465C1C0EE05C210F482BF0B9
:10009000FEFF0346002B06D05C210C482BF0F7FF37
:1000A00003465C1C00E0094CFFF766FC02460D4B62
:1000B00000931346F2222146042013F0E3FC00BF14
:1000C00004B010BD2C2B0020302B00207CCA040073
:1000D0004631002000CB0400102D0020A42C00206D
:1000E0004431002028CB040000B585B00023ADF8D2
:1000F0000E300023029322E04FF6FF73ADF8063076
:100100001349029A13469B0013449B000B441B881F
:100110000DF106021146184620F092FE0346002B10
:1001200010D1BDF806304FF6FF7293420AD0BDF8E9
:100130000E300133ADF80E30029B01330293029B67
:10014000322BD9D9BDF80E30184605B05DF804FB46
:10015000102D0020F0B58FB00B9009A880E80600A4
:10016000ADF822300B98FFF70FFC0D9009AB0C9304
:100170002C4B1B6803F48043002B49D02A4B1B688F
:10018000032B45DD2F2129482BF081FF0346002B4F
:1001900006D02F2125482BF07AFF03465C1C0EE089
:1001A0005C2122482BF073FF0346002B06D05C2114
:1001B0001E482BF06CFF03465C1C00E01B4CFFF755
:1001C000DBFB07460C9B1B781A460C9B01331B7804
:1001D00019460C9B02331B7818460C9B03331B7883
:1001E0001D460C9B04331B781E46BDF82230079336
:1001F000069605950490039102920D9B01930C4B7A
:1002000000933B4640F211122146042013F03AFCC1
:1002100009AA05230D99072003F0FAFD00BF0FB0CE
:10022000F0BD00BF2C2B0020302B00207CCA040026
:1002300044CB040010B598B09C4B1B6803F480437A
:10024000002B2CD09A4B1B68032B28DD2F219948BB
:100250002BF01DFF0346002B06D02F2195482BF0D5
:1002600016FF03465C1C0EE05C2192482BF00FFF4A
:100270000346002B06D05C218E482BF008FF034676
:100280005C1C00E08B4CFFF777FB02468A4B009327
:10029000134640F217122146042013F0F3FB23F01B
:1002A00049FE20F00DFC854B4FF6FF721A80844BFF
:1002B0004FF6FF721A80002317930EE0814A179BB6
:1002C0004FF6FF7122F813107F4A179B4FF6FF710C
:1002D00022F81310179B01331793179B322BEDD97C
:1002E0007A4B4FF6FF721A80784B4FF6FF725A80A6
:1002F000774825F0FBFA1490149B002B05D06D4A2B
:1003000040F2271114980AF04FFE724A00217248F9
:1003100025F0B8FD1390139B002B05D0654A4FF4D0
:10032000947113980AF040FE002316932DE06B4958
:10033000169A13469B0013449B000B440433684AEF
:100340001A606649169A13469B0013449B000B449F
:100350000833644A1A60169A13469B0013449B00A4
:100360005E4A1344169A92B2114618462AF07AFF52
:100370001290129B002B05D04E4A4FF497711298A1
:100380000AF012FE169B01331693169B342BCED91E
:1003900023F04EFD0346002B06D0FFF731FD034648
:1003A0001A46514B1A804EE0504B1B68029302AB29
:1003B000184623F0D5FD1190119B002B05D03D4A26
:1003C00040F2391111980AF0EFFD40494CF6FE2039
:1003D00023F03CFE1090109B002B05D0354A4FF4C3
:1003E0009D7110980AF0E0FD41494CF6FF2023F082
:1003F0002DFE0F900F9B002B05D02E4A40F23B1193
:100400000F980AF0D1FD2D4A3A49002024F05DF8FA
:100410000E900E9B002B05D0264A4FF49E710E982D
:100420000AF0C2FD254B1988254B334A002024F0E1
:10043000AFFA0D900D9B002B05D01E4A40F23D11E6
:100440000D980AF0B1FD20F02FFA0346002B06D0DC
:10045000FFF74AFE03461A46284B1A80FAE01E4B65
:100460001A88174B1B881946104620F077FD0C9010
:100470000C9B002B05D00F4A40F247110C980AF054
:1004800093FD154B1A880E4B1B881946104620F019
:10049000C3FD0B900B9B002B05D0064A4FF4A471B3
:1004A0000B980AF081FD002315935CE02C2B0020B3
:1004B000302B00207CCA04009CCB0400382C002088
:1004C0003A2C00203C2C0020A42C00200C2D0020D5
:1004D000FD380200AD06020034310020102D00204E
:1004E00055010200D5F9010044310020C0CB0400C1
:1004F0000E2D00206CC904007CC904004631002088
:100500006449159A13469B0013449B000B441A88B8
:10051000614B1B881946104620F020FD0A900A9B6B
:10052000002B05D05D4A40F24D110A980AF03CFDBF
:100530005849159A13469B0013449B000B441A8894
:10054000554B1B881946104620F066FD0990099B03
:10055000002B05D0514A4FF4A77109980AF024FDE9
:10056000159B01331593159B322BC9D9494BB3F811
:10057000FC23494B1B881946104620F0EFFC0890DD
:10058000089B002B05D0454A40F2511108980AF00B
:100590000BFD404BB3F8FC233F4B1B88194610461C
:1005A00020F03AFD0790079B002B05D03B4A4FF403
:1005B000A97107980AF0F8FC364BB3F8FC23384BC6
:1005C0001B881946104620F0E3FB0690069B002B83
:1005D00005D0324A40F2531106980AF0E5FC2D4B43
:1005E000B3F810242C4B1B881946104620F0B6FC9B
:1005F0000590059B002B05D0284A40F2551105981F
:100600000AF0D2FC234BB3F81024234B1B88194665
:10061000104620F001FD0490049B002B05D01F4ADA
:100620004FF4AB7104980AF0BFFC1A4BB3F81024D6
:100630001B4B5B881946104620F0AAFB0390039BD6
:10064000002B05D0154A40F2571103980AF0ACFC74
:1006500020F080F903F03AFB124B1A88124B1B88EA
:100660009A4208D20F4B1B8803F580739BB2184641
:1006700003F014F90BE00C4B1B88322B07D80A4B04
:100680001B8803F580739BB2184603F025F900BF61
:1006900018B010BD102D00203A2C00207CCA040098
:1006A0000C2D0020463100204431002010B586B0CA
:1006B00005900491049B1B78002B40D1234B1B68B1
:1006C00003F48043002B3CD0214B1B68032B38DD07
:1006D0002F2120482BF0DBFC0346002B06D02F21D6
:1006E0001C482BF0D4FC03465C1C0EE05C2119482E
:1006F0002BF0CDFC0346002B06D05C2115482BF0D7
:10070000C6FC03465C1C00E0124CFFF735F9049B65
:100710005B685B881A46049B1B7B1946049B5B68DD
:1007200093F914300393029101920B4B009303460B
:100730004FF4B7722146042013F0A4F901E000BF82
:1007400000E000BF00BF06B010BD00BF2C2B002092
:10075000302B00207CCA0400C4CB040010B586B046
:100760000D230393374B1B6803F48043002B2FD0DA
:10077000354B1B68032B2BDD2F2134482BF087FCD6
:100780000346002B06D02F2130482BF080FC034677
:100790005C1C0EE05C212D482BF079FC0346002BFD
:1007A00006D05C2129482BF072FC03465C1C00E05B
:1007B000264CFFF7E1F80246254B1B880193254B99
:1007C0000093134640F27D122146042013F05AF99B
:1007D0001F4B1B88194603AA0423012003F018FBB2
:1007E0001B4B1B881A461C4B33F81230184623F05B
:1007F00081FC0590059B002B05D0144A4FF4C07175
:1008000005980AF0D1FB124B1B881A46134B33F89C
:100810001230184624F04CF80490049B002B05D0AD
:100820000A4A40F2811104980AF0BEFB0C4B1B8867
:1008300003F580739BB2184603F04EF800BF06B074
:1008400010BD00BF2C2B0020302B00207CCA0400E0
:1008500046310020FCCB0400A42C00203C2C0020BE
:100860004431002010B58AB00390584B1B88322BBE
:100870000BD97B460993564B1B68002B04D0544B75
:100880001B680998984700E000DE524B1B6803F490
:100890008043002B2FD0504B1B68032B2BDD2F21C7
:1008A0004E482BF0F4FB0346002B06D02F214B487B
:1008B0002BF0EDFB03465C1C0EE05C2147482BF05F
:1008C000E6FB0346002B06D05C2144482BF0DFFBFF
:1008D00003465C1C00E0414CFFF74EF80246039BC8
:1008E0005B8A01933E4B0093134640F28B122146E4
:1008F000042013F0C7F8039B588A3A4B1B885B000F
:10090000394A1344194623F0A1FB0890089B002B99
:1009100005D0324A4FF4C77108980AF045FB039B93
:10092000588A324B1988039B9C682E4B1B885B00AE
:100930002F4A1344224623F05DFF0790079B002BAC
:1009400005D0264A40F28F1107980AF02DFB254B5F
:100950001B881A46264B33F81230184625F08EF8BD
:100960000690069B002B05D01C4A4FF4C9710698CF
:100970000AF01AFB1B4B1B881A461D4B33F812203A
:10098000184B1B881946184B33F81130194610467E
:1009900024F0F4FF0590059B002B05D00F4A4FF47F
:1009A000CA7105980AF000FB0E4B1B8801339AB2FE
:1009B0000C4B1A80054B1B8803F580739BB21846BD
:1009C00002F06CFF00BF0AB010BD00BF463100202E
:1009D000705200202C2B0020302B00207CCA0400F9
:1009E00020CC040044310020A42C0020382C00200E
:1009F0003C2C002000B583B00190002001F0A0FD48
:100A000000BF03B05DF804FB10B59EB005900491E3
:100A10001346ADF80E30049B1B781B021AB2049BE0
:100A200001331B781BB213431BB2ADF87630BDF80F
:100A300076304FF6FF72934202D10A23ADF876303A
:100A4000049B02331B78013B062B00F27A8201A241
:100A500052F823F0710A0200E50A0200AB0B020013
:100A6000250D02001F0E0200130F0200330F0200BB
:100A7000A34B1B6803F48043002B2CD0A14B1B68B5
:100A8000032B28DD2F21A0482BF001FB0346002B70
:100A900006D02F219C482BF0FAFA03465C1C0EE08E
:100AA0005C2199482BF0F3FA0346002B06D05C2119
:100AB00095482BF0ECFA03465C1C00E0924CFEF7E4
:100AC0005BFF0246914B009313464FF4D8722146C8
:100AD000042012F0D7FF049B03331B78184601F063
:100AE000DDFC33E2BDF80E30032B0BD1BDF87630C0
:100AF000874AD25CBDF8763082F00102D1B2844AD6
:100B0000D15405E0BDF87630049AD178804AD154AA
:100B1000BDF8762013469B0013449B007D4A98182D
:100B2000BDF876307A4AD15C2AF001FC03461C936A
:100B3000734B1B6803F48043002B2ED0714B1B6852
:100B4000032B2ADD2F2170482BF0A1FA0346002B3E
:100B500006D02F216C482BF09AFA03465C1C0EE05D
:100B60005C2169482BF093FA0346002B06D05C21E8
:100B700065482BF08CFA03465C1C00E0624CFEF7E3
:100B8000FBFE02461C9B0193634B009313464FF4FC
:100B9000DD722146042012F075FFBDF876101CAA04
:100BA0000423052003F034F9D0E1049BD91CBDF8DF
:100BB0000E30033B1A461AAB18462BF082FABDF8EA
:100BC00076300A2B03D0BDF876300B2B4BD1BDF815
:100BD000762013469B0013449B004E4A981803232B
:100BE0001AAA06CA2AF0D4FB03461C93444B1B687E
:100BF00003F48043002B2ED0424B1B68032B2ADDCD
:100C00002F2141482BF043FA0346002B06D02F2119
:100C10003D482BF03CFA03465C1C0EE05C213A4850
:100C20002BF035FA0346002B06D05C2136482BF01A
:100C30002EFA03465C1C00E0334CFEF79DFE024694
:100C40001C9B0193354B009313464FF4E1722146F0
:100C5000042012F017FFBDF876101CAA042304200C
:100C600003F0D6F872E1BDF8762013469B001344DA
:100C70009B00284A98181AAB93E806002AF020FB3C
:100C800003461C931E4B1B6803F48043002B2ED09D
:100C90001C4B1B68032B2ADD2F211B482BF0F7F977
:100CA0000346002B06D02F2117482BF0F0F90346FE
:100CB0005C1C0EE05C2114482BF0E9F90346002B84
:100CC00006D05C2110482BF0E2F903465C1C00E0E2
:100CD0000D4CFEF751FE02461C9B0193104B0093F6
:100CE00013464FF4E4722146042012F0CBFEBDF807
:100CF00076101CAA0423042003F08AF826E100BF22
:100D00002C2B0020302B00207CCA040050CC040087
:100D100048310020102D00206CCC04008CCC040045
:100D2000B4CC04004FF6FF73ADF85E30BDF876200A
:100D3000884913469B0013449B000B441B880DF10C
:100D40005E021146184620F07BF8BDF85E304FF683
:100D5000FF72934200F0F780BDF85E3015AA11468D
:100D6000184623F091FABDF876307B4A32F813002A
:100D7000BDF87630794A32F81330194624F0FEFD7A
:100D800003238DF84C304CF6FF23ADF84E30592339
:100D9000ADF84A300223ADF84830BDF85600129B3A
:100DA00013AA06CA24F060FF03461C936C4B1B6811
:100DB00003F48043002B00F0C6806A4B1B68032BB2
:100DC00040F3C1802F2168482BF061F90346002BC6
:100DD00006D02F2164482BF05AF903465C1C0EE024
:100DE0005C2161482BF053F90346002B06D05C21AF
:100DF0005D482BF04CF903465C1C00E05A4CFEF7B2
:100E0000BBFD02461C9B0193584B0093134640F2D6
:100E1000DF122146042012F035FE00BF93E04FF6AA
:100E2000FF73ADF83E30BDF876204A4913469B006B
:100E300013449B000B441B880DF13E0211461846DB
:100E40001FF0FEFFBDF83E304FF6FF7293427CD09C
:100E5000BDF83E300DAA1146184623F015FABDF82C
:100E600076303D4A32F81300BDF876303B4A32F80E
:100E70001330194624F082FD03238DF82C304CF6F4
:100E8000FF23ADF82E305923ADF82A300223ADF8F8
:100E90002830BDF836000A9B0BAA06CA24F017FFBB
:100EA00003461C932E4B1B6803F48043002B4CD04D
:100EB0002C4B1B68032B48DD2F212B482BF0E7F828
:100EC0000346002B06D02F2127482BF0E0F80346DD
:100ED0005C1C0EE05C2124482BF0D9F80346002B63
:100EE00006D05C2120482BF0D2F803465C1C00E0C1
:100EF0001D4CFEF741FD02461C9B01931C4B0093C9
:100F0000134640F2F5122146042012F0BBFD00BF4B
:100F10001BE0184A002118480AF0E2FF174B002294
:100F20004FF4203118460BF00BF8012001F008FBBC
:100F30000CE0049B03331B78184601F04FFC00BF04
:100F400004E000BF02E000BF00E000BF00BF1EB031
:100F500010BD00BF102D00203C2C0020A42C002030
:100F60002C2B0020302B00207CCA0400D0CC0400A5
:100F7000FCCC0400F50902008CC90400803100207B
:100F800070B58AB0079006910592059B0993099B5D
:100F90005B6818460DF004FB0546099B1B881E463E
:100FA000099B9C68099B9B6818460DF0C1FE03468F
:100FB00018460DF0F5FA0346039302940196009546
:100FC000069B079A074901200DF045FB0520FEF717
:100FD000B1FC059A0699079809F0FEFF00BF0AB018
:100FE00070BD00BF28CD040000B587B0F1EE103A07
:100FF0000193019B23F09F030293029BE1EE103AC1
:10100000F1EE103A03932620FEF7AAFBFEF7D2FB7F
:101010000590059B0493049B002B05D0044A40F2E5
:101020003A21049809F0C0FF00BF07B05DF804FB47
:101030007CCA040000B583B00190019B1B78012B92
:1010400008D0022B10D0002B15D10D4903200DF034
:10105000ADFA10E00B4903200DF0A8FA0520FEF7C9
:1010600069FCFEF795FB06E0074903200DF09EFAA8
:10107000FEF78EFB00BF00BF03B05DF804FB00BFAE
:1010800080CD0400A8CD0400D4CD040000B58DB0FF
:101090000F2000F0C9F90B900B9B0A930A9B002BC1
:1010A00005D0234A40F263210A9809F07DFF214BC5
:1010B000079307AB18462AF085FB0B900B9B09930F
:1010C000099B002B05D01A4A4FF41A71099809F0B0
:1010D0006BFF184B0693174B05931749174802F0FF
:1010E000D1FE174B0293154B03930523049302ABD8
:1010F000184601F021F90B900B9B0893089B002BDD
:1011000005D00B4A40F27A21089809F04DFF0D4AAC
:101110006B4692E803001860043319706B46002197
:1011200018462AF009FA00BF0DB05DF804FB00BFB5
:101130007CCA040064C90400090A0200102C0020C3
:1011400035100200F8CD040000B587B003460A460A
:101150008DF8073013468DF806309DF80630012BC8
:1011600006D11B4B1B7883F00103DAB2184B1A70BF
:1011700004AB00221A601A7101238DF81030FF238E
:101180008DF81130FF238DF81230FF238DF81330C6
:1011900002AB00221A601A7101238DF808309DF805
:1011A00007300B2B10D10A4B1B78012B06D10323E0
:1011B00004AA06CA07482AF0EBF805E0032302AAAE
:1011C00006CA04482AF0E4F800BF07B05DF804FB43
:1011D000A03100200C31002000B585B008F05AF98C
:1011E000034683F00103DBB2002B13D008F00AF9A9
:1011F0000390039B002B0DD016480DF0D1F9024649
:10120000039B00934FF42A73134902200DF00AFA4E
:10121000039B1AE040F266620121104809F030FE9B
:101220000390039B002B0DD00A480DF0B9F902463C
:10123000039B00934FF42D73074902200DF0F2F940
:10124000039B02E009F08EFE0346184605B05DF8E8
:1012500004FB00BF7CCA040000CE0400B4CE04002E
:1012600000B585B00C4B019301AB184600F0F0FAC5
:101270000390039B0293029B002B05D0074A40F288
:10128000D921029809F090FE6420FEF753FB00BFBD
:1012900005B05DF804FB00BFBCCE04007CCA0400AE
:1012A00000B589B000200DF02BF9069039490320D4
:1012B0000DF07CF903210B20FEF7B8FA069B05938D
:1012C000059B002B05D0344A40F2E921059809F02E
:1012D0006BFE0B20FEF7C0FA0346002B25D104233A
:1012E0008DF81330FEF735FB0346A3F5E043039377
:1012F000FEF72FFB03461A469DF813301B03D31A43
:10130000A3F5E043079306E0079809F0D7FC079B95
:1013100003F580530793039A079B9A42F4D21F491F
:1013200003200DF043F9FEF733FA1D4A04214FF470
:10133000C04012F091FB1B4A3C21082009F0F0FE4E
:101340000290029B0193019B002B05D0124A40F2B0
:10135000FB21019809F028FE0AF08EFD0690069BFD
:101360000093009B002B05D00B4A40F2FD21009812
:1013700009F01AFEFFF774FFFFF788FEFFF72CFF56
:1013800029F0EEFBFEF756FF09F090FFFFF72CFE69
:10139000FAE700BF44CE04007CCA040088CE0400F3
:1013A0001D3A0300A431002000B587B003900291DC
:1013B000019200930BF0EAF803468DF81730164BB4
:1013C0001B789DF817209A4208D29DF817301A46CC
:1013D000124901200DF0FBF80F2318E0009B019A41
:1013E0000299039808F0E0FC0490049B002B0DD0B8
:1013F0000B4B1B6801330A4A1360094B1B681A46E2
:10140000084901200DF0E3F8049B00E00023184692
:1014100007B05DF804FB00BF1C2B0020D8CE0400F1
:101420007435002030CF040082B003468DF80730B9
:10143000054A9DF807301370044B00221A60002300
:10144000184602B0704700BF1C2B002074350020E6
:1014500012DF704700BF18466DDF704700BF1846A7
:1014600084B00190244B0393019B002B40D0234B6D
:101470001A680399019B00BF00BF00BF00BF00BFF7
:1014800000BF00BF00BF8A422FD000BF00BF00BF17
:1014900000BF00BF00BF00BF00BF00BF00BF00BF54
:1014A00000BF00BF00BF00BF00BF00BF00BF00BF44
:1014B00000BF00BF00BF00BF00BF00BF00BF00BF34
:1014C00000BF00BF00BF00BF00BF00BF00BF00BF24
:1014D00000BF00BF00BF00BF00BF00BF00BF00BF14
:1014E00000BF00BF00BF00BF00BF013BC3D10193DD
:1014F00000BF04B0704700BF0024F400182B002088
:1015000000B583B00190019B4FF47A7202FB03F3A4
:101510001846FFF7A5FF00BF03B05DF804FB82B0DB
:1015200001904FF0A043184602B0704700B585B057
:101530000190084611461A4603468DF803300B46C3
:101540008DF8023013468DF8013001AB1846FFF7D5
:10155000E6FF03909DF803209DF802305B001A43DC
:101560009DF801309B001A439DF818301B0242EA97
:1015700003019DF81C301B04019A1943039B02F5DB
:10158000E07243F8221000BF05B05DF804FB00B51F
:1015900085B00390002301930023009300230122D0
:1015A00001210398FFF7C2FF00BF05B05DF804FBFF
:1015B00000B585B0019001AB1846FFF7B0FF03906E
:1015C000019B012202FA03F31946039800F018F870
:1015D00000BF05B05DF804FB00B585B0019001AB1C
:1015E0001846FFF79CFF0390019B012202FA03F3C8
:1015F0001946039800F00EF800BF05B05DF804FB33
:1016000082B001900091019B009AC3F8082500BFA9
:1016100002B0704782B001900091019B009AC3F81C
:101620000C2500BF02B0704700B58FB003900DF1DC
:101630002F031846FFF70CFF0C900C9B002B0CD0CF
:1016400033480CF0ADFF02460C9B00933A2331491E
:1016500002200CF0E7FF0C9B55E09DF82F30002B8B
:1016600001D102234FE00AAB1846FFF7F5FE0C90BC
:101670000C9B002B0CD026480CF092FF02460C9BD2
:1016800000934323234902200CF0CCFF0C9B3AE04B
:1016900005AB00221A605A609A60DA601A8206234B
:1016A0008DF8373025E09DF83730062B0AD005AB92
:1016B00018462AF084FD024605AB13441649184625
:1016C0002AF09FFC05AB18462AF079FD024605ABCF
:1016D00098189DF83730013B0EAA134413F80F3CBD
:1016E0001A460E492AF08DFC9DF83730013B8DF8E3
:1016F00037309DF83730002BD5D105AB194603980C
:101700002AF03BFD002318460FB05DF804FB00BF34
:1017100070CF0400ECCF040040D0040044D004009B
:1017200030B587B003AB83E8060003468DF8173069
:101730009DF817301E2B33D09DF817009DF80C1024
:101740009DF80D409DF80E509DF80F309DF810202B
:10175000019200932B462246FFF7E8FE9DF81130D8
:10176000012B09D0022B1AD0002B0BD19DF817307A
:101770001846FFF731FF13E09DF817301846FFF7C2
:1017800017FF0DE008480CF00BFF024606230093FC
:101790008B23064902200CF045FF062301E000BF21
:1017A0000023184607B030BD70CF0400ECCF040012
:1017B00082B003468DF807300023184602B0704708
:1017C00000B5B5B01F4A02AB1146C02218462AF038
:1017D00078FC00238DF8CF302AE09DF8CF20134607
:1017E0005B0013445B0034AA1344C83B9DF8CF0050
:1017F0001A68002111469A88002362F30F031A46E3
:10180000FFF78EFF3290329B002B0CD00E480CF06D
:10181000C7FE0246329B0093C5230C4902200CF000
:1018200001FF329B09E09DF8CF3001338DF8CF30B6
:101830009DF8CF301F2BD0D90023184635B05DF866
:1018400004FB00BF4CD0040070CF0400ECCF0400B8
:1018500000B587B00390FFF7B3FF0590059B002B01
:101860000CD034480CF09CFE0246059B0093E42308
:10187000314902200CF0D6FE059B56E01E20FFF7F2
:1018800086FE1E20FFF794FE0520FFF739FE1A2082
:10189000FFF77DFE1A20FFF79FFE1720FFF777FE68
:1018A0001720FFF799FE1220FFF771FE1320FFF7B4
:1018B0006EFE1420FFF76BFE1520FFF768FE122066
:1018C000FFF78AFE1320FFF787FE1420FFF784FE40
:1018D0001520FFF781FE0121039804F06DFE0590AD
:1018E000059B002B0CD013480CF05AFE0246059BBA
:1018F0000093FB23104902200CF094FE059B14E09A
:101900000120FFF755FF0590059B002B0CD00948DF
:101910000CF046FE0246059B0093FE23064902207A
:101920000CF080FE059B00E00023184607B05DF830
:1019300004FB00BF70CF0400ECCF04007ADF7047D7
:1019400000BF18467CDF704700BF18467FDF704736
:1019500000BF18468FDF704700BF1846A9DF7047E9
:1019600000BF1846ADDF704700BF184669DF7047FB
:1019700000BF184666DF704700BF184631DF70476A
:1019800000BF18463DDF704700BF184684B0019085
:10199000244B0393019B002B40D0234B1A680399DF
:1019A000019B00BF00BF00BF00BF00BF00BF00BF62
:1019B00000BF8A422FD000BF00BF00BF00BF00BFE2
:1019C00000BF00BF00BF00BF00BF00BF00BF00BF1F
:1019D00000BF00BF00BF00BF00BF00BF00BF00BF0F
:1019E00000BF00BF00BF00BF00BF00BF00BF00BFFF
:1019F00000BF00BF00BF00BF00BF00BF00BF00BFEF
:101A000000BF00BF00BF00BF00BF00BF00BF00BFDE
:101A100000BF00BF00BF013BC3D1019300BF04B0B2
:101A2000704700BF0024F400182B002000B583B0DD
:101A30000190019B4FF47A7202FB03F31846FFF703
:101A4000A5FF00BF03B05DF804FB000000B583B044
:101A500001900091009B1B78012B09D0022B02D032
:101A6000002B0AD00EE00C4903200CF09FFD0EE085
:101A70000A4903200CF09AFD09E0094903200CF003
:101A800095FD04E0074902200CF090FD00BF00BF67
:101A900003B05DF804FB00BFC4D1040004D204000D
:101AA00040D2040080D2040000B587B09DF8043015
:101AB0006FF303038DF804309DF804306FF30713C0
:101AC0008DF804301B482AF07AFB03469AB201AB2A
:101AD00018491846FFF736FF0590059B0493049BB1
:101AE000002B04D0144A8A21049809F05DFA02AB55
:101AF0000822002118462AF00DFB4623ADF80830D5
:101B00009623ADF80A300023ADF80C304FF4A073E3
:101B1000ADF80E3002AB1846FFF710FF0590059B9D
:101B2000002B01D0059B00E00023184607B05DF8AC
:101B300004FB00BFBCD20400C8D2040000B583B0CF
:101B40000190019B1B78002B04D1084901200CF067
:101B50002DFD07E0019B1B78012B03D104490320D5
:101B60000CF024FD00BF03B05DF804FB58D3040063
:101B7000A8D3040000B583B00190019A0649012062
:101B80000CF025FD054AC521019809F00DFA00BFAA
:101B900003B05DF804FB00BFF4D30400C8D2040016
:101BA00000B58BB002AB1C22002118462AF0B2FA15
:101BB0006B460822002118462AF0ACFA4623ADF8FD
:101BC00000309623ADF802300023ADF804304FF416
:101BD000A073ADF806306B4602934FF400430393B5
:101BE0004FF47023049303238DF814300023ADF8D1
:101BF000163000238DF81830094B0793094B0893D2
:101C000002AB184606F0E2FB0990099B002B01D0BD
:101C1000099B00E0002318460BB05DF804FB00BFF1
:101C20003D1B0200751B020000B589B003468DF80C
:101C300007309DF80730002B06D0032B20D1144924
:101C400003200CF0B3FC1EE0124903200CF0AEFCA4
:101C500002238DF80C30104B1B6803AA10469847DE
:101C6000032006F0FFF90790079B0693069B002BC5
:101C700008D00A4A40F20311069809F095F901E0EC
:101C800000BF00E000BF00BF09B05DF804FB00BF6B
:101C900030D4040068D4040078350020C8D2040091
:101CA00000B58FB00190019B1B88013B542B00F2C3
:101CB0004B8101A252F823F0971E0200491F020037
:101CC000491F0200491F0200491F0200491F02006C
:101CD000491F0200491F0200491F0200491F02005C
:101CE000491F0200491F0200491F0200491F02004C
:101CF000491F02000D1E02002F1E0200491F020094
:101D0000471E0200491F0200491F0200491F02002E
:101D1000491F0200491F0200491F0200491F02001B
:101D2000491F0200491F0200491F0200491F02000B
:101D3000491F0200491F0200031F02003F1F02004B
:101D4000491F0200491F0200491F0200491F0200EB
:101D5000491F0200491F0200491F0200491F0200DB
:101D6000491F0200491F0200491F0200491F0200CB
:101D7000491F0200491F0200491F0200491F0200BB
:101D8000491F0200491F0200491F0200491F0200AB
:101D9000491F0200491F0200491F0200F31E0200F2
:101DA000491F0200491F0200491F0200491F02008B
:101DB000491F0200491F0200491F0200491F02007B
:101DC000491F0200491F0200491F0200491F02006B
:101DD000491F0200491F0200491F0200491F02005B
:101DE000491F0200491F0200491F0200491F02004B
:101DF000491F0200491F0200491F02006F1E020016
:101E0000491F0200491F0200BD1E0200564903205F
:101E10000CF0CCFB019B9A88544B1A8000238DF860
:101E20001430534B1B6805AA1046984797E0019B56
:101E30001B7A1A464F4903200CF0C9FB4B4B4FF657
:101E4000FF721A808BE0494B1888002300228521FD
:101E5000FFF77CFD0D900D9B0C930C9B002B75D018
:101E6000454A4FF494710C9809F09EF86EE03F4B90
:101E70001888002300220021FFF770FD0D900D9BB4
:101E80000B930B9B002B63D03B4A4FF497710B983D
:101E900009F08AF85CE0354B1B8800211846FFF7F3
:101EA00069FD0D900D9B0A930A9B002B52D0324A7C
:101EB00040F233110A9809F077F84BE0019BDB8878
:101EC0001A462E4903200CF082FB019B9B884FF49D
:101ED0008A711846FFF746FD0D900D9B0993099BEB
:101EE000002B39D0244A4FF49D71099809F05CF811
:101EF00032E0019B5B891A46214903200CF067FB05
:101F00002DE003AB0822002118462AF003F91D49F1
:101F100003200CF04BFB019B9B8803A90022184671
:101F2000FFF718FD0D900D9B0893089B002B15D013
:101F3000114A4FF4A571089809F036F80EE01249DD
:101F400003200CF033FB0AE000BF08E000BF06E00E
:101F500000BF04E000BF02E000BF00E000BF00BF20
:101F60000FB05DF804FB00BFA0D404001E2B0020BE
:101F700078350020DCD40400C8D204002CD504003D
:101F80007CD50400C8D5040018D6040000B585B07F
:101F90000190019806F006FC019806F049FB002329
:101FA000039312E0124B1A68039BDB0013445B6837
:101FB000002B07D00E4B1A68039BDB0013445B68B1
:101FC00001989847039B013303930A4B1B68039ABC
:101FD0009A42E7D3019908480BF033FF0198FFF7C5
:101FE0005FFE019806F028F900BF05B05DF804FB1C
:101FF0007C350020803500209C35002000B583B062
:102000000190019806F034F900BF03B05DF804FBBD
:1020100000B58FB06D4B1B68049304A86C4B4FF454
:10202000A6726C490CF064F90D900D9B0C930C9BFF
:10203000002B05D0684A4FF4C7710C9808F0B4FF24
:102040000023039303AB18460CF016FA0B900B9B7E
:102050000A930A9B002B05D05F4A4FF4C9710A9876
:1020600008F0A2FF6B460C22002118462AF052F815
:1020700001238DF80030039A6B4619464020FFF784
:1020800075FC0B900B9B0993099B002B05D0524AC2
:1020900040F29911099808F087FF6B460C22002145
:1020A00018462AF037F89DF8003043F001038DF808
:1020B0000030039A6B461946A020FFF757FC0B909F
:1020C0000B9B0893089B002B05D0434A4FF4CF711C
:1020D000089808F069FF6B460C22002118462AF088
:1020E00019F801238DF800304FF48A73ADF80230EF
:1020F000039A6B4619462320FFF738FC0B900B9B85
:102100000793079B002B05D0334A40F2A51107988F
:1021100008F04AFF6B460C220021184629F0FAFF0E
:1021200001238DF800304FF4A073ADF80430012383
:102130008DF80230039A6B4619462020FFF716FCF3
:102140000B900B9B0693069B002B05D0224A40F276
:10215000AD11069808F028FF03AB18460CF09CF967
:102160000B900B9B0593059B002B05D01A4A4FF44F
:10217000D971059808F018FF18480CF025F90B9054
:102180000B9B002B01D00B9B1BE015480CF02CF98E
:102190000B900B9B002B01D00B9B12E00120FFF753
:1021A000EDFB0B900B9B002B01D00B9B09E001205A
:1021B000FFF7E8FB0B900B9B002B01D00B9B00E083
:1021C000002318460FB05DF804FB00BF60D6040082
:1021D00011DF0200B4350020C8D204008D1F0200B8
:1021E000FD1F020000B5ABB01AAB3C22002118461F
:1021F00029F090FF02238DF8683000238DF86A30B3
:1022000006238DF86B3003AB20220021184629F0FD
:1022100081FF01238DF80F304FF4BE730793002325
:1022200008930BAB3C220021184629F073FF0123D1
:10223000ADF83C30114B109303AA0BA91AA8002348
:1022400000930F4B05F00AFE2990299B002B0DD01F
:102250000C480CF0A5F90246299B009340F2ED13BF
:10226000094902200CF0DEF9299B03E0012005F06A
:10227000E7FD002318462BB05DF804FB202B00205F
:10228000291C0200C8D2040064D6040000B589B03D
:102290000190009104AB04220021184629F03AFF76
:1022A0000023079318E0079BDB00019A13441B6887
:1022B000002B0ED0079BDB00019A13441B681A4ABF
:1022C0001278104698470690069B002B01D0069B7B
:1022D00026E0079B01330793079A009B9A42E2D3BB
:1022E00002AB08220021184629F014FF0F4B02937D
:1022F00001238DF80C3001238DF80D3002AB194607
:102300000B480BF013FC0690069B0593059B002BD6
:1023100005D0084A40F21B21059808F045FE00232D
:10232000184609B05DF804FB843500204D1A020000
:102330009C350020C8D2040000B585B00190019BF7
:102340001B68454A1360019B5B68444A1360019B0C
:102350009B68434A1360FFF75BFE0390039B002BCF
:1023600006D0039A3F4901200CF031F9039B6EE03F
:102370003D4BD3F888303C4A43F47003C2F88830B0
:10238000BFF34F8FBFF36F8FFFF78EFB0390039B5D
:10239000002B06D0039A354901200CF018F9039B55
:1023A00055E02E4B1A682E4B1B6819461046FFF756
:1023B0006DFF0390039B002B06D0039A2C4901204C
:1023C0000CF005F9039B42E0FFF70CFF0390039B21
:1023D000002B06D0039A274901200CF0F8F8039B44
:1023E00035E0FFF7DDFB0390039B002B06D0039A3B
:1023F000214901200CF0EBF8039B28E0032005F0B5
:1024000031FE0390039B002B06D0039A1B49012049
:102410000CF0DDF8039B1AE01948FFF705F903906B
:10242000039B002B06D0039A164901200CF0CFF82D
:10243000039B0CE012480CF0B3F803461A4612490D
:1024400013200CF0C4F80A20FFF7F0FA0023184616
:1024500005B05DF804FB00BF783500207C35002016
:1024600080350020B8D6040000ED00E0F4D604006A
:1024700030D704007CD70400B8D70400F4D7040098
:102480008835002034D8040070D80400024BD3F8FB
:1024900004351846704700BF00B0004010B584B046
:1024A00003468DF80F309DF80F30002B14BF012329
:1024B0000023DAB21D4B1A701C4B1B78002B31D055
:1024C0001B4B1B6803F48043002B2BD0194B1B685C
:1024D000012B27DD2F21184829F0D9FD0346002BB9
:1024E00006D02F21144829F0D2FD03465C1C0EE0D3
:1024F0005C21114829F0CBFD0346002B06D05C215E
:102500000D4829F0C4FD03465C1C00E00A4CFFF7AF
:10251000BDFF0246094B009313466C222146022060
:1025200011F0B0FA00BF04B010BD00BF242B002092
:102530002C2B0020302B002084D804001CD9040050
:10254000B0B58CB004AF0346FB715E4B1B78002B1B
:1025500000F0B080FB7983F00103DBB2002B00F0C8
:10256000A980584B00221A700023FB769CE0564B42
:102570001B6803F48043002B00F08A80534B1B68D8
:10258000012B40F385806B461D4610237B617B69E0
:102590005B00581C0346013B3B6101464FF00002C3
:1025A0004FF000034FF00004D40044EA5174CB0014
:1025B00001464FF000024FF000034FF00004D4003A
:1025C00044EA5174CB00C31DDB08DB00ADEB030D07
:1025D00004AB0033FB600023FB6123E0FB7E3C4A3D
:1025E0001B011A44FB6913441B78FB72394B1A68B0
:1025F000FB7A1B09DBB203F00F031A44FB695B0093
:102600001178FA68D154334B1A68FB7A03F00F0340
:102610001A44FB695B0001331178FA68D154FB69F5
:102620000133FB61FA697B699A42D7D37B695B000E
:10263000FA680021D1542F21274829F028FD0346AC
:10264000002B06D02F21244829F021FD03465C1CD5
:102650000EE05C21204829F01AFD0346002B06D02D
:102660005C211D4829F013FD03465C1C00E01A4C58
:10267000FFF70CFF0246FB680293184B0193184BBF
:102680000093134677222146022011F0FBF9AD4654
:10269000F97EFB7E1B010E4A1A441023002001F034
:1026A000B7FBFB7E0133FB760E4B1B78FA7E9A421A
:1026B000FFF45DAF034AFB79137000BF2037BD46BE
:1026C000B0BD00BF003700202C2B0020302B002095
:1026D00004370020282B002084D8040038D90400B7
:1026E00040D90400A437002008B5A02200210448E6
:1026F00029F010FD034B00221A7000BF08BD00BF77
:1027000004370020A437002000B58BB001905F2370
:102710008DF808305F238DF809306E238DF80A306C
:102720006F238DF80B3072238DF80C3064238DF8F5
:102730000D3069238DF80E3063238DF80F305F2341
:102740008DF810305F238DF8113073238DF812301F
:1027500065238DF813306D238DF8143069238DF8BF
:1027600015305F238DF816305F238DF81730002366
:10277000ADF818300023ADF81A300023ADF81C3046
:10278000124B1B88ADF81E309DF820306FF300030C
:102790008DF820309DF820306FF341038DF8203004
:1027A00002AA002301990A4823F05BFC0990099BC7
:1027B000002B04D0074A9121099808F0F5FB064B3D
:1027C00002221A7000BF0BB05DF804FBFA3A002039
:1027D000C839002084D80400F83A0020B0B58CB085
:1027E00004AF0346FB71854B1B78FA799A4234D9C2
:1027F000834B1B6803F48043002B00F0FA80814B6D
:102800001B68012B40F3F5802F217F4829F03FFC06
:102810000346002B06D02F217B4829F038FC0346C5
:102820005C1C0EE05C21784829F031FC0346002B4B
:1028300006D05C21744829F02AFC03465C1C00E0A9
:10284000714CFFF723FE0246704B0093134698220B
:102850002146022011F016F9CBE0694B1B6803F406
:102860008043002B00F08A80664B1B68012B40F3ED
:1028700085806B461D461023BB61BB695B00581CFD
:102880000346013B7B6101464FF000024FF000031D
:102890004FF00004D40044EA5174CB0001464FF0DD
:1028A00000024FF000034FF00004D40044EA5174DA
:1028B000CB00C31DDB08DB00ADEB030D04AB003325
:1028C0003B610023FB6123E0FB79514A1B011A4461
:1028D000FB6913441B78FB734E4B1A68FB7B1B0987
:1028E000DBB203F00F031A44FB695B0011783A690D
:1028F000D154484B1A68FB7B03F00F031A44FB6961
:102900005B00013311783A69D154FB690133FB61F3
:10291000FA69BB699A42D7D3BB695B003A69002167
:10292000D1542F21384829F0B2FB0346002B06D0A2
:102930002F21354829F0ABFB03465C1C0EE05C21DF
:10294000314829F0A4FB0346002B06D05C212E4819
:1029500029F09DFB03465C1C00E02B4CFFF796FD25
:1029600002463B6902932C4B01932C4B0093134678
:102970009C222146022011F085F8AD46FB791B010F
:10298000234A1344184600F04DF8FFF7ADFE1C4BE8
:102990001B6803F48043002B2BD01A4B1B68012BC0
:1029A00027DD2F21184829F072FB0346002B06D0A3
:1029B0002F21154829F06BFB03465C1C0EE05C21BF
:1029C000114829F064FB0346002B06D05C210E4819
:1029D00029F05DFB03465C1C00E00B4CFFF756FD45
:1029E00002460F4B009313469F222146022011F00E
:1029F00049F800BF2037BD46B0BD00BFA437002056
:102A00002C2B0020302B002084D8040048D904004F
:102A100004370020282B002060D9040040D904008E
:102A200080D90400B0B58CB004AF78604B4B1B6804
:102A300003F48043002B00F08780494B1B68032B75
:102A400040F382806B461D461023BB61BB695B006F
:102A5000581C0346013B7B6101464FF000024FF0DA
:102A600000034FF00004D40044EA5174CB00014647
:102A70004FF000024FF000034FF00004D40044EA8E
:102A80005174CB00C31DDB08DB00ADEB030D04ABC1
:102A900000333B610023FB6120E07A68FB6913444B
:102AA0001B78FB732F4B1A68FB7B1B09DBB203F00F
:102AB0000F031A44FB695B0011783A69D154294B22
:102AC0001A68FB7B03F00F031A44FB695B000133B8
:102AD00011783A69D154FB690133FB61FA69BB692A
:102AE0009A42DAD3BB695B003A690021D1542F21A5
:102AF0001D4829F0CCFA0346002B06D02F211A4896
:102B000029F0C5FA03465C1C0EE05C21164829F04A
:102B1000BEFA0346002B06D05C21134829F0B7FA11
:102B200003465C1C00E0104CFFF7B0FC02463B691A
:102B300002930E4B01930E4B00931346A5222146A0
:102B4000042010F09FFFAD467868FFF7DDFD094BCC
:102B500002221A7000BF2037BD46B0BD2C2B0020CA
:102B6000302B0020282B002084D8040090D90400AA
:102B700040D90400F83A002010B5A2B0A14B1B7850
:102B8000033B072B00F2BA8201A252F823F000BFE8
:102B9000B12B0200B72B0200352C0200C72C02001B
:102BA000672D02002D2E0200332F02003F3002005D
:102BB000944B04221A70944B1B6803F48043002B3F
:102BC0002BD0924B1B68032B27DD2F21904829F037
:102BD0005EFA0346002B06D02F218D4829F057FAC4
:102BE00003465C1C0EE05C21894829F050FA03463C
:102BF000002B06D05C21864829F049FA03465C1C6C
:102C000000E0834CFFF742FC0246824B00931346E0
:102C1000B5222146042010F035FF22F057FF219005
:102C2000219B002B00F07782794AB621219808F089
:102C3000BBF970E2744B1B6803F48043002B2BD06C
:102C4000724B1B68032B27DD2F21714829F01FFAD7
:102C50000346002B06D02F216D4829F018FA0346B1
:102C60005C1C0EE05C216A4829F011FA0346002B37
:102C700006D05C21664829F00AFA03465C1C00E095
:102C8000634CFFF703FC0246634B00931346BD22DF
:102C90002146042010F0F6FE604B13AC0FCB84E805
:102CA0000F0013AB1A460021002022F053FF2090A2
:102CB000209B002B00F03182554ABF21209808F05C
:102CC00073F900BF29E2504B1B6803F48043002BCB
:102CD0002BD04E4B1B68032B27DD2F214C4829F0AE
:102CE000D6F90346002B06D02F21494829F0CFF909
:102CF00003465C1C0EE05C21454829F0C8F90346F8
:102D0000002B06D05C21424829F0C1F903465C1C27
:102D100000E03F4CFFF7BAFB0246414B00931346DD
:102D2000C6222146042010F0ADFE4FF6FF73ADF829
:102D30004A300223ADF848303A4B1B88ADF87E305C
:102D4000BDF87E30129A0021184622F0F3FF1E9043
:102D50001E9B002B00F0E3812D4ACB211E9808F02A
:102D600023F900BFDBE1284B1B6803F48043002BF1
:102D70002BD0264B1B68032B27DD2F21244829F05D
:102D800086F90346002B06D02F21214829F07FF930
:102D900003465C1C0EE05C211D4829F078F90346CF
:102DA000002B06D05C211A4829F071F903465C1CFF
:102DB00000E0174CFFF76AFB02461B4B00931346DB
:102DC000D2222146042010F05DFE5923ADF8463092
:102DD0000223ADF84430134B1B88ADF87630BDF8B4
:102DE0007630119A0021184622F0A4FF1C901C9BFB
:102DF000002B00F09681064AD7211C9808F0D4F8E1
:102E000000BF8EE1F83A00202C2B0020302B002050
:102E100084D80400A8D90400C4D90400BCDA040092
:102E2000D4D90400FA3A0020F8D904000BAB0022F0
:102E30001A605A609A60DA601A615A61BE4B1B8848
:102E4000ADF82C3001238DF830300123ADF832304D
:102E50000023ADF8383000238DF83A3033238DF855
:102E60003B309DF83C30012262F387038DF83C3003
:102E70009DF83C3043F003038DF83C3001238DF87E
:102E80003D3000238DF83E304FF0FF338DF8413058
:102E90004FF0FF338DF84230002343F002038DF8EA
:102EA0003F3000238DF84030A44B1B6803F480436F
:102EB000002B2ED0A24B1B68032B2ADD2F21A1480B
:102EC00029F0E5F80346002B06D02F219D4829F074
:102ED000DEF803465C1C0EE05C219A4829F0D7F826
:102EE0000346002B06D05C21964829F0D0F8034613
:102EF0005C1C00E0934CFFF7C9FA0246BDF8323083
:102F00000193914B00931346EB222146042010F0CD
:102F1000B9FD0BAB184622F083FE1B901B9B002BC8
:102F200000F00181874AED211B9808F03DF800BFB1
:102F3000F9E005AB00221A605A609A60DA601A6103
:102F40005A617D4B1B88ADF8143001238DF8183081
:102F5000794B1B88FF3B9BB2ADF81A300023ADF8CC
:102F6000203000238DF8223033238DF823309DF854
:102F700024306FF387038DF824309DF824306FF3ED
:102F800001038DF8243001238DF8253000238DF8BE
:102F90002630002343F059038DF8293000238DF8A3
:102FA0002A30002343F002038DF8273000238DF8E8
:102FB0002830624B1B6803F48043002B2FD0604BFA
:102FC0001B68032B2BDD2F215E4829F060F8034698
:102FD000002B06D02F215B4829F059F803465C1CD2
:102FE0000EE05C21574829F052F80346002B06D02A
:102FF0005C21544829F04BF803465C1C00E0514C1E
:10300000FFF744FA0246BDF81A3001934F4B009384
:10301000134640F201122146042010F033FD05ABA7
:10302000184622F0FDFD1A901A9B002B7DD0454AD0
:1030300040F203111A9807F0B7FF00BF75E03F4B4D
:103040001B6803F48043002B2CD03D4B1B68032BE3
:1030500028DD2F213B4829F01AF80346002B06D023
:103060002F21384829F013F803465C1C0EE05C2140
:10307000344829F00CF80346002B06D05C21314877
:1030800029F005F803465C1C00E02E4CFFF7FEF922
:1030900002462F4B009313464FF4857221460420BD
:1030A00010F0F0FC244B1B88ADF8663000238DF83F
:1030B0000C300023ADF80E300023049303238DF869
:1030C0000C304CF6FE23ADF80E305923ADF80A3023
:1030D0000223ADF80830BDF86600029B03AA06CAB9
:1030E00022F0C2FD1890189B002B20D0154A4FF4F7
:1030F0008971189807F058FF00BF18E07B461793B6
:10310000144B1B68002B04D0124B1B681798984770
:103110000EE000DE0CE000BF0AE000BF08E000BFE8
:1031200006E000BF04E000BF02E000BF00E000BF17
:1031300000BF22B010BD00BFFA3A00202C2B0020A7
:10314000302B002084D8040024DA040064DA040060
:10315000A4DA040070520020B0B592B004AF7860D9
:10316000012387F82F30B54B1B6803F48043002BF5
:1031700000F08880B24B1B68012B40F383806B46C4
:103180001D461023BB62BB6A5B00581C0346013B13
:103190007B6201464FF000024FF000034FF0000445
:1031A000D40044EA5174CB0001464FF000024FF0C6
:1031B00000034FF00004D40044EA5174CB00C31D57
:1031C000DB08DB00ADEB030D04AB00333B620023F7
:1031D0003B6320E07A683B6B13441B78FB77994B89
:1031E0001A68FB7F1B09DBB203F00F031A443B6B29
:1031F0005B0011783A6AD154924B1A68FB7F03F056
:103200000F031A443B6B5B00013311783A6AD154C7
:103210003B6B01333B633A6BBB6A9A42DAD3BB6ABE
:103220005B003A6A0021D1542F21874828F02FFFF4
:103230000346002B06D02F21834828F028FF0346A1
:103240005C1C0EE05C21804828F021FF0346002B27
:1032500006D05C217C4828F01AFF03465C1C00E085
:10326000794CFFF713F902463B6A0293774B0193BF
:10327000774B0093134640F223122146022010F0B0
:1032800001FCAD46002387F82E3014E097F82E306D
:103290001B01704A134410227968184628F0C6FEB4
:1032A0000346002B02D1002387F82F3097F82E30E9
:1032B000013387F82E3097F82E30092BE6D997F88E
:1032C0002F30002B12D0644B1B78082B0ED8624B8A
:1032D0001B781B015F4A13447968184628F04DFF9C
:1032E0005D4B1B780133DAB25B4B1A70002387F811
:1032F0002E3097E0514B1B6803F48043002B00F005
:103300008C804F4B1B68012B40F387806B461D461A
:103310001023BB61BB695B00581C0346013B7B610A
:1033200001464FF000024FF000034FF00004D400BC
:1033300044EA5174CB0001464FF000024FF0000305
:103340004FF00004D40044EA5174CB00C31DDB08E5
:10335000DB00ADEB030D04AB00333B6100237B636B
:1033600024E097F82E303B4A1B011A447B6B134430
:103370001B78FB73334B1A68FB7B1B09DBB203F032
:103380000F031A447B6B5B0011783A69D1542D4BC3
:103390001A68FB7B03F00F031A447B6B5B0001335D
:1033A00011783A69D1547B6B01337B637A6BBB69CB
:1033B0009A42D6D3BB695B003A690021D1542F21D0
:1033C000214828F064FE0346002B06D02F211E481A
:1033D00028F05DFE03465C1C0EE05C211A4828F0D4
:1033E00056FE0346002B06D05C21174828F04FFEFE
:1033F00003465C1C00E0144CFFF748F802463B69AA
:103400000293124B0193124B0093134640F2331276
:103410002146022010F036FBAD4697F82E300133DE
:1034200087F82E300C4B1B7897F82E209A42FFF429
:1034300061AF00BF18463837BD46B0BD2C2B002009
:10344000302B0020282B002084D80400CCDA040084
:1034500040D9040004370020A437002010B58AB0FA
:103460000390039B1B78082B00F2FD8101A252F808
:1034700023F000BF99340200FF37020049350200F3
:1034800067380200673802006937020067380200B7
:103490004736020035360200A84B1B78012B40F05E
:1034A000E481A74B1B78002B08D0039B04331846FC
:1034B000FFF72AF9A14B02221A70D6E1A04B1B7824
:1034C00083F00103DBB2002B00F0CF819D4B1B7812
:1034D000002B00F0CA819C4B1B6803F48043002B37
:1034E0002CD09A4B1B68032B28DD2F21984828F0FD
:1034F000CEFD0346002B06D02F21954828F0C7FDAE
:1035000003465C1C0EE05C21914828F0C0FD034698
:10351000002B06D05C218E4828F0B9FD03465C1CC8
:1035200000E08B4CFEF7B2FF02468A4B0093134635
:1035300040F247122146042010F0A4FA039B043302
:103540001846FFF709FE90E17F4B1B6803F48043A8
:10355000002B2CD07D4B1B68032B28DD2F217C48B2
:1035600028F095FD0346002B06D02F21784828F03F
:103570008EFD03465C1C0EE05C21754828F087FD3B
:103580000346002B06D05C21714828F080FD0346DD
:103590005C1C00E06E4CFEF779FF02466E4B009318
:1035A00013464FF4A7722146042010F06BFA634BC8
:1035B0001B78022B36D1644B1B6803F48043002B2D
:1035C0002CD0624B1B68032B28DD2F21604828F08C
:1035D0005EFD0346002B06D02F215D4828F057FDE5
:1035E00003465C1C0EE05C21594828F050FD034660
:1035F000002B06D05C21564828F049FD03465C1C90
:1036000000E0534CFEF742FF0246544B0093134632
:1036100040F251122146042010F034FA474B0122A7
:103620001A7024E1454B1B78032B40F02081FFF7F3
:10363000A3FA1CE1414B00221A70039B0433184685
:10364000FDF710F91AE1039B5868102300220121AD
:1036500022F03FFD0990099B002B38D03A4B1B68A4
:1036600003F48043002B2ED0384B1B68002B2ADD3F
:103670002F21374828F00BFD0346002B06D02F21C1
:10368000334828F004FD03465C1C0EE05C21304802
:1036900028F0FDFC0346002B06D05C212C4828F0C6
:1036A000F6FC03465C1C00E0294CFEF7EFFE0246E8
:1036B000099B01932A4B009313464FF4B4722146A1
:1036C000012010F0DFF91D4B01221A70D1E01E4BD2
:1036D0001B6803F48043002B00F0CB801B4B1B685E
:1036E000032B40F3C6802F21194828F0D0FC034655
:1036F000002B06D02F21164828F0C9FC03465C1C7D
:103700000EE05C21124828F0C2FC0346002B06D0D4
:103710005C210F4828F0BBFC03465C1C00E00C4C0D
:10372000FEF7B4FE02460F4B0093134640F26D12B3
:103730002146042010F0A6F99BE000BFF83A0020D3
:10374000242B0020003700202C2B0020302B0020C1
:1037500084D80400D8DA0400E4DA040004DB0400AE
:1037600028DB04006CDB0400464B04AC0FCB84E880
:103770000F00039B5B6804A91022184622F0CDFCC1
:103780000890089B002B05D03F4A40F2751108981D
:1037900007F00AFC3D4B1B6803F48043002B6AD002
:1037A0003B4B1B68032B66DD2F21374828F06FFC4D
:1037B0000346002B06D02F21334828F068FC03462F
:1037C0005C1C0EE05C21304828F061FC0346002BB5
:1037D00006D05C212C4828F05AFC03465C1C00E013
:1037E000294CFEF753FE02462A4B009313464FF432
:1037F000BB722146042010F045F900BF3BE0234B8B
:103800001B6803F48043002B37D0214B1B68032B2C
:1038100033DD2F211C4828F03AFC0346002B06D04C
:103820002F21194828F033FC03465C1C0EE05C2174
:10383000154828F02CFC0346002B06D05C211248CA
:1038400028F025FC03465C1C00E00F4CFEF71EFE32
:103850000246114B0093134640F27B12214604208E
:1038600010F010F909E000BF08E000BF06E000BF5B
:1038700004E000BF02E000BF00E000BF00BF0AB0EC
:1038800010BD00BFDCDB040084D804002C2B00201A
:10389000302B00208CDB0400B4DB040000B583B0C7
:1038A0000346ADF806300A4ABDF806301380094BCE
:1038B0001B78022B03D1074B03221A7004E0054B3F
:1038C00003221A70FFF758F900BF03B05DF804FB3C
:1038D000FA3A0020F83A002082B00346ADF80630EC
:1038E000044ABDF806301380034B01221A7000BF52
:1038F00002B07047FA3A0020F83A0020B0B592B012
:1039000004AF03463960FB711346BB80FB79002B83
:1039100002D1FCF723FFCAE13B68002B0BD17B46A9
:103920003B639B4B1B68002B04D0994B1B68386B87
:10393000984700E000DE3B681B88022B40F09F8028
:10394000944B1B78042B40F09A80934B1B6803F434
:103950008043002B00F08D80904B1B68032B40F3BD
:1039600088806B461D46BB88FB62FB6A5B00581C67
:103970000346013BBB6201464FF000024FF00003DB
:103980004FF00004D40044EA5174CB0001464FF0DC
:1039900000024FF000034FF00004D40044EA5174D9
:1039A000CB00C31DDB08DB00ADEB030D04AB003324
:1039B0007B6200237B6325E03B685B681A467B6B78
:1039C00013441B7887F82330754B1A6897F8233017
:1039D0001B09DBB203F00F031A447B6B5B00117809
:1039E0007A6AD1546E4B1A6897F8233003F00F03AC
:1039F0001A447B6B5B00013311787A6AD1547B6B7C
:103A000001337B637A6BFB6A9A42D5D3FB6A5B0016
:103A10007A6A0021D1542F21624828F038FB0346EE
:103A2000002B06D02F215F4828F031FB03465C1C99
:103A30000EE05C215B4828F02AFB0346002B06D0F1
:103A40005C21584828F023FB03465C1C00E0554CE1
:103A5000FEF71CFD02467B6A0293534B0193534BC6
:103A60000093134640F2A5122146042010F00AF8F4
:103A7000AD46484B05221A70FFF77EF817E13B6808
:103A80001B8848F2030293421FD1424B1B78052B3F
:103A90001BD13B685B681B78002B10D03B685B68D0
:103AA0001B78062B0BD07B46FB61394B1B68002B28
:103AB00004D0374B1B68F869984700E000DE354BAF
:103AC00006221A70FFF758F8F1E03B681B8848F2AD
:103AD0003E0293421AD12F4B1B78062B16D13B681E
:103AE0005B681B78002B0BD07B46BB61284B1B68A7
:103AF000002B04D0264B1B68B869984700E000DE15
:103B0000244B07221A70FFF737F8D0E03B681B8878
:103B100048F23E0293421AD11E4B1B78072B16D156
:103B20003B685B681B78002B0BD07B467B61184B96
:103B30001B68002B04D0164B1B687869984700E07F
:103B400000DE144B08221A70FFF716F8AFE03B684E
:103B50001B8848F2190293422AD10E4B1B78082B7E
:103B600026D13B685B681B78002B0BD07B463B6102
:103B7000074B1B68002B04D0054B1B68386998471E
:103B800000E000DE034B09221A70FEF7F5FF8EE01D
:103B900070520020F83A00202C2B0020302B0020FF
:103BA000282B002084D80400ECDB040040D904005A
:103BB0003B681B8848F2190293421AD13D4B1B788F
:103BC000092B16D13B685B681B78002B0BD07B461A
:103BD000FB60394B1B68002B04D0374B1B68F8681F
:103BE000984700E000DE334B0A221A70FEF7C4FF4C
:103BF0005DE03B681B8848F21F0293421AD12D4BAF
:103C00001B780A2B16D13B685B681B78002B0BD006
:103C10007B46BB60284B1B68002B04D0264B1B68DF
:103C2000B868984700E000DE224B00221A70FCF7CB
:103C3000A1F93CE03B681B8848F21F02934236D151
:103C40001E4B1B6803F48043002B30D01C4B1B68B9
:103C5000012B2CDD2F211B4828F019FA0346002BDD
:103C600006D02F21174828F012FA03465C1C0EE0FC
:103C70005C21144828F00BFA0346002B06D05C2187
:103C8000104828F004FA03465C1C00E00D4CFEF7D7
:103C9000FDFB02463B685B681B7801930A4B00936F
:103CA000134640F2D712214602200FF0EBFE3837C0
:103CB000BD46B0BDF83A0020705200202C2B0020E9
:103CC000302B002084D8040000DC040000B58BB049
:103CD000274B00221A70274A03AB07CA03C31A8076
:103CE0000233120C1A702449244822F0ADF90990CD
:103CF000099B002B05D0224A4FF4F171099807F077
:103D000053F903AA1F4B009313461B4A1B491E4835
:103D100022F01AF90890089B002B05D0184A40F2AF
:103D2000E311089807F040F9184824F0E1F8034639
:103D30001946154822F068F90790079B002B05D01B
:103D40000F4A4FF4F271079807F02EF90D4822F050
:103D500005FA0690069B002B05D0094A40F2E511B2
:103D6000069807F021F900BF0BB05DF804FB00BF17
:103D7000F83A002018DC0400E8370020A8370020BB
:103D800084D804005D340200C839002008380020BF
:103D900000B583B001900199034804F029FF00BFEA
:103DA00003B05DF804FB00BFFC3A002000B585B00D
:103DB00003468DF8073002AB04220021184628F094
:103DC000A9F9074B1B68029302AB1946054804F09A
:103DD00037FF039000BF184605B05DF804FB00BF35
:103DE000183B0020FC3A002000B583B001900B4640
:103DF000ADF80230BDF802301A460199034804F0CC
:103E000077FF0346184603B05DF804FBFC3A002038
:103E100000B58DB0029101921A460346ADF80E30FE
:103E200013468DF80D3005AB00221A605A609A6077
:103E3000DA601A61C3F81320029B1B0ADBB28DF80B
:103E40001430029BDBB28DF81530BDF80E30DBB2BA
:103E50008DF816309DF80D2005AB033301991846F7
:103E600028F02FF99DF80D309BB203339AB205ABC1
:103E700011461846FFF7B8FF0B900B9B18460DB084
:103E80005DF804FB00B583B001900091019B002B0D
:103E900001D10E230CE0084903200AF087FB074AF2
:103EA000009B1360019B064A5A60019B054A1A60F9
:103EB000184603B05DF804FB24DC0400183B002026
:103EC000913D0200AD3D020082B001904FF0A04351
:103ED000184602B0704700B585B0019008461146FB
:103EE0001A4603468DF803300B468DF80230134610
:103EF0008DF8013001AB1846FFF7E6FF03909DF8FF
:103F000003209DF802305B001A439DF801309B00AE
:103F10001A439DF818301B0242EA03019DF81C3039
:103F20001B04019A1943039B02F5E07243F8221027
:103F300000BF05B05DF804FB00B585B00390002319
:103F40000193002300930023012201210398FFF72E
:103F5000C2FF00BF05B05DF804FB00B585B001905D
:103F600001AB1846FFF7B0FF0390019B012202FA54
:103F700003F31946039800F018F800BF05B05DF888
:103F800004FB00B585B0019001AB1846FFF79CFF1C
:103F90000390019B012202FA03F31946039800F0F3
:103FA0000EF800BF05B05DF804FB82B001900091EF
:103FB000019B009AC3F8082500BF02B0704782B089
:103FC00001900091019B009AC3F80C2500BF02B03C
:103FD0007047000084B00190244B0393019B002B99
:103FE00040D0234B1A680399019B00BF00BF00BF5C
:103FF00000BF00BF00BF00BF00BF8A422FD000BF7C
:1040000000BF00BF00BF00BF00BF00BF00BF00BFB8
:1040100000BF00BF00BF00BF00BF00BF00BF00BFA8
:1040200000BF00BF00BF00BF00BF00BF00BF00BF98
:1040300000BF00BF00BF00BF00BF00BF00BF00BF88
:1040400000BF00BF00BF00BF00BF00BF00BF00BF78
:1040500000BF00BF00BF00BF00BF00BF00BF013BEB
:10406000C3D1019300BF04B0704700BF0024F40027
:10407000182B002082B00190064B1A68019BDB00D0
:1040800013441B78012B0CBF01230023DBB218461D
:1040900002B070471C3B002082B00190064B1A68AA
:1040A000019BDB0013441B78002B0CBF0123002372
:1040B000DBB2184602B070471C3B002082B00346BA
:1040C0008DF807309DF80730102B01D9012300E04F
:1040D0000023184602B0704700B585B003900B4628
:1040E00001928DF80B30019B00221A800398FFF794
:1040F000D3FF0346002B0CD0314B1A68039BDB0027
:1041000013445B781A46012393409AB2019B1A80AC
:1041100050E00398FFF7AEFF0346002B48D09DF810
:104120000B3003F00103002B11D0019B1B881AB246
:10413000234B1968039BDB000B445B781946012372
:104140008B401BB213431BB29AB2019B1A809DF89D
:104150000B3003F00203002B11D0019B1B881AB215
:10416000174B1968039BDB000B449B78194601230E
:104170008B401BB213431BB29AB2019B1A809DF86D
:104180000B3003F00403002B14D0019B1B881AB2E0
:104190000B4B1968039BDB000B44DB7819460123AA
:1041A0008B401BB213431BB29AB2019B1A8001E0F1
:1041B000012300E00023184605B05DF804FB00BFB2
:1041C0001C3B002082B00190019B074AA2FB032305
:1041D0005A0913469B001344DB001A46019B134403
:1041E000184602B0704700BF1F85EB5100B587B07D
:1041F0000346ADF80E30BDF80E300021184601F030
:104200003BFF0590059B002B0CD014480AF0C8F921
:104210000246059B0093C723114902200AF002FAC7
:10422000059B17E0BDF80E301946002001F024FF71
:104230000590059B002B0CD008480AF0B1F9024606
:10424000059B0093CA23064902200AF0EBF9059B5F
:1042500000E00023184607B05DF804FB3CDC0400D6
:10426000BCDC040000B58BB003468DF80730444B2E
:104270001B788DF82730424B1B78002B06D19DF917
:104280000730B3F1FF3F01D1022374E03C4B1A78B1
:104290009DF807301344DAB2394B1A70384B1B784B
:1042A000012B30D19DF82730002B2CD1354B1B68CA
:1042B000184601F07DFD0890089B0793079B002B93
:1042C00004D0314AEC21079806F06EFE60214020B0
:1042D00001F012FF0890089B0693069B002B04D068
:1042E000294AF021069806F05FFE02F0A7F8089030
:1042F000089B0593059B002B3BD0234AF72105988B
:1043000006F052FE35E01E4B1B78002B32D19DF893
:104310002730012B2ED11B4B1B68184601F048FD9E
:104320000890089B0493049B002B04D0164AFC21A0
:10433000049806F039FE6021002001F0DDFE0890AF
:10434000089B0393039B002B04D00F4AFF21039883
:1043500006F02AFE02F072F80890089B0293029B76
:10436000002B07D0084A4FF48371029806F01CFE18
:1043700000E000BF002318460BB05DF804FB00BF4F
:10438000313B0020203B00203CDC040000B587B01E
:1043900003900B468DF80B30314B1A68039BDB0002
:1043A00013445B681B685B7A8DF817309DF81730F3
:1043B0002C4AD2569DF80B302A49CB569A4240D00F
:1043C0009DF81730274AD2569DF80B302549CB5619
:1043D0009A4214DA0120FFF745FF0490049B002B5A
:1043E0002FD021480AF0DCF80246049B00934FF4DA
:1043F000A4731E4902200AF015F9049B2CE09DF8D5
:104400001730184AD2569DF80B301649CB569A42AF
:1044100015DD4FF0FF30FFF725FF0490049B002BC4
:104420000FD011480AF0BCF80246049B00934FF4E9
:10443000A7730E4902200AF0F5F8049B0CE0022352
:104440000AE0074B1A68039BDB0013445B681B6898
:104450009DF80B205A720023184607B05DF804FB44
:104460001C3B002038DC04003CDC0400BCDC040005
:104470002DE9F04190B00190019B0F939C4B1A687D
:104480000F9BDB0013445B681B685B7A032B00F215
:10449000178101A252F823F0DD460200A944020070
:1044A00079450200DD460200914B1A680F9BDB0044
:1044B00013445B681B685B68002B4BD08C4B1A68FD
:1044C0000F9BDB0013445B685D68894B1A680F9B88
:1044D000DB0013445B681B685B6819464FF0000201
:1044E0004FF000034FF00004D40344EA5144CB03DF
:1044F00013F5FA7744F100084FF47A724FF0000395
:104500003846414627F08CFB03460C4619460F9B64
:104510001A46284607F014FD0E900E9B0D930D9B36
:10452000002B05D0734A4FF4B9710D9806F03CFD8D
:1045300002210F98FFF72AFF0E900E9B0C930C9B05
:10454000002B00F0CD806B4A4FF4BB710C9806F045
:104550002BFDC5E000210F98FFF718FF0E900E9B72
:104560000B930B9B002B00F0BB80624A4FF4BE7193
:104570000B9806F019FDB3E05D4B1A680F9BDB004A
:1045800013445B681B685B68002B00F0AB80584BE2
:104590001A680F9BDB0013445B685F68544B1A6812
:1045A0000F9BDB0013445B681B681B681846FFF712
:1045B00009FE034619464FF000024FF000034FF08A
:1045C0000004D40344EA5144CB0313F5FA7544F1D3
:1045D00000064FF47A724FF000032846314627F068
:1045E0001FFB03460C4619460F9B1A46384607F038
:1045F000A7FC0E900E9B0A930A9B002B05D03D4A08
:104600004FF4C5710A9806F0CFFC01210F98FFF70F
:10461000BDFE0E900E9B0993099B002B05D0354AD9
:1046200040F28F11099806F0BFFC334B1B68184607
:1046300001F0BEFB0E900E9B0893089B002B05D04B
:104640002C4A4FF4C971089806F0AEFC284B1A6842
:104650000F9BDB0013445B681B681B7A0DF10E0295
:1046600019460F98FFF738FD0E900E9B0793079B96
:10467000002B05D01F4A40F29511079806F094FCD4
:10468000BDF80E301846FFF7B1FD0E900E9B069355
:10469000069B002B05D0174A4FF4CC71069806F004
:1046A00083FC01F0CBFE0E900E9B0593059B002B27
:1046B00018D0104A40F29B11059806F075FC11E0E5
:1046C00001230E930E9B0493049B002B0BD0094AED
:1046D00040F2AD11049806F067FC04E000BF02E070
:1046E00000BF00E000BF00BF10B0BDE8F08100BF18
:1046F0001C3B00203CDC0400203B002084B00390E5
:10470000029101920093019B00221A70039B1B7877
:10471000002B1AD1039B5B78FF2B16D1039B9B7850
:10472000002B12D1039BDB78002B0ED1039B1B794E
:10473000002B0AD1039B5B79002B06D1029B002240
:104740001A70019B01221A7050E0039B1B78002B0A
:104750001AD1039B5B78002B16D1039B9B78002B0F
:1047600012D1039BDB78002B0ED1039B1B79002B0E
:104770000AD1039B5B79002B06D1029B01221A70A0
:10478000019B01221A7031E0039B1B78002B13D18F
:10479000039B9B78002B0FD1039BDB78002B0BD165
:1047A000039B1B79002B07D1039B5B79002B03D163
:1047B000029B02221A7019E0039B9B78002B0AD1FE
:1047C000029B03221A70039BDB78002B0ED1019B06
:1047D00001221A700AE0029B04221A70039BDB7804
:1047E000002B03D1019B01221A70FFE700BF04B028
:1047F0007047000000B589B0059003921A460B4639
:104800008DF8133013468DF812309DF813300122C5
:1048100002FA03F3ADF81E30904B1B68184601F006
:10482000C7FA0690069B002B0DD08D4809F0B8FE04
:104830000246069B009340F2F9138A49022009F0D0
:10484000F1FE069B05E19DF81230002B30D1BDF83A
:104850001E301946002001F0C1FC0690069B002B7B
:104860000DD07F4809F09CFE0246069B009340F263
:10487000FF137C49022009F0D5FE069BE9E0BDF854
:104880001E301946002001F0F7FB0690069B002B16
:1048900000F0CA80724809F083FE0246069B00932E
:1048A00040F202236F49022009F0BCFE069BD0E0D3
:1048B0009DF81230012B30D1BDF81E300021184672
:1048C00001F0DAFB0690069B002B0DD0644809F03E
:1048D00067FE0246069B00934FF402736149022073
:1048E00009F0A0FE069BB4E0BDF81E30194600207A
:1048F00001F074FC0690069B002B00F09580584850
:1049000009F04EFE0246069B009340F20B235549E8
:10491000022009F087FE069B9BE0039B002B01D140
:104920000E2396E0039B1B781A04039B5B781B0203
:104930001A43039B9B78DB001343039AD2781343FB
:1049400019469DF81330484A184601F087FC069036
:10495000069B002B0DD0424809F022FE0246069B22
:10496000009340F21B233F49022009F05BFE069BA7
:104970006FE0BDF81E30184601F042FE0346002BE2
:1049800022D0039B1B791B021AB2039B5B791BB2DB
:1049900013431BB299B29DF8133041F61F721846AB
:1049A00001F0C2FC0690069B002B0DD02C4809F0AC
:1049B000F7FD0246069B00934FF409732949022034
:1049C00009F030FE069B44E0BDF81E300021184679
:1049D00001F004FC0690069B002B0DD0204809F046
:1049E000DFFD0246069B00934FF40A731D49022027
:1049F00009F018FE069B2CE0BDF81E301946002079
:104A000001F03AFB0690069B002B0DD0144809F0EC
:104A1000C7FD0246069B00934FF40B731149022019
:104A200009F000FE069B14E001F008FD0690069BCD
:104A3000002B0DD00A4809F0B3FD0246069B0093F7
:104A40004FF40C730749022009F0ECFD069B00E0CF
:104A50000023184609B05DF804FB00BF203B00208E
:104A60003CDC0400BCDC0400FFFF1F0000B587B085
:104A700003900291019200238DF81030FF238DF8EE
:104A8000113000238DF8123000238DF813300023ED
:104A90008DF8143000238DF81530019B002B08D1C0
:104AA000029BD9B2012300220398FFF7A3FE03461D
:104AB00017E0019BFF2B08D1029BD9B200230022F3
:104AC0000398FFF797FE03460BE0019BDBB28DF8DE
